{"contracts/Blog.sol":{"Blog":{"abi":[{"inputs":[{"internalType":"string","name":"_name","type":"string"}],"stateMutability":"nonpayable","type":"constructor"},{"anonymous":false,"inputs":[{"indexed":false,"internalType":"uint256","name":"id","type":"uint256"},{"indexed":false,"internalType":"string","name":"title","type":"string"},{"indexed":false,"internalType":"string","name":"hash","type":"string"}],"name":"PostCreated","type":"event"},{"anonymous":false,"inputs":[{"indexed":false,"internalType":"uint256","name":"id","type":"uint256"},{"indexed":false,"internalType":"string","name":"title","type":"string"},{"indexed":false,"internalType":"string","name":"hash","type":"string"},{"indexed":false,"internalType":"bool","name":"published","type":"bool"}],"name":"PostUpdated","type":"event"},{"inputs":[],"name":"_postIds","outputs":[{"internalType":"uint256","name":"_value","type":"uint256"}],"stateMutability":"view","type":"function"},{"inputs":[{"internalType":"string","name":"title","type":"string"},{"internalType":"string","name":"hash","type":"string"}],"name":"createPost","outputs":[],"stateMutability":"nonpayable","type":"function"},{"inputs":[{"internalType":"string","name":"hash","type":"string"}],"name":"fetchPost","outputs":[{"components":[{"internalType":"uint256","name":"id","type":"uint256"},{"internalType":"string","name":"title","type":"string"},{"internalType":"string","name":"content","type":"string"},{"internalType":"bool","name":"published","type":"bool"}],"internalType":"struct Blog.Post","name":"","type":"tuple"}],"stateMutability":"view","type":"function"},{"inputs":[],"name":"fetchPosts","outputs":[{"components":[{"internalType":"uint256","name":"id","type":"uint256"},{"internalType":"string","name":"title","type":"string"},{"internalType":"string","name":"content","type":"string"},{"internalType":"bool","name":"published","type":"bool"}],"internalType":"struct Blog.Post[]","name":"","type":"tuple[]"}],"stateMutability":"view","type":"function"},{"inputs":[],"name":"name","outputs":[{"internalType":"string","name":"","type":"string"}],"stateMutability":"view","type":"function"},{"inputs":[],"name":"owner","outputs":[{"internalType":"address","name":"","type":"address"}],"stateMutability":"view","type":"function"},{"inputs":[{"internalType":"address","name":"newOwner","type":"address"}],"name":"transferOwnership","outputs":[],"stateMutability":"nonpayable","type":"function"},{"inputs":[{"internalType":"string","name":"_name","type":"string"}],"name":"updateName","outputs":[],"stateMutability":"nonpayable","type":"function"}],"evm":{"bytecode":{"linkReferences":{},"object":"60806040523480156200001157600080fd5b5060405162001fa838038062001fa883398181016040528101906200003791906200033f565b620000836040518060400160405280601981526020017f4465706c6f79696e6720626c6f672077697468206e616d653a0000000000000081525082620000dd60201b6200098c1760201c565b8060009081620000949190620005db565b5033600160006101000a81548173ffffffffffffffffffffffffffffffffffffffff021916908373ffffffffffffffffffffffffffffffffffffffff160217905550506200074f565b6200017f8282604051602401620000f692919062000714565b6040516020818303038152906040527f4b5c4277000000000000000000000000000000000000000000000000000000007bffffffffffffffffffffffffffffffffffffffffffffffffffffffff19166020820180517bffffffffffffffffffffffffffffffffffffffffffffffffffffffff83818316178352505050506200018360201b60201c565b5050565b60008151905060006a636f6e736f6c652e6c6f679050602083016000808483855afa5050505050565b6000604051905090565b600080fd5b600080fd5b600080fd5b600080fd5b6000601f19601f8301169050919050565b7f4e487b7100000000000000000000000000000000000000000000000000000000600052604160045260246000fd5b6200021582620001ca565b810181811067ffffffffffffffff82111715620002375762000236620001db565b5b80604052505050565b60006200024c620001ac565b90506200025a82826200020a565b919050565b600067ffffffffffffffff8211156200027d576200027c620001db565b5b6200028882620001ca565b9050602081019050919050565b60005b83811015620002b557808201518184015260208101905062000298565b60008484015250505050565b6000620002d8620002d2846200025f565b62000240565b905082815260208101848484011115620002f757620002f6620001c5565b5b6200030484828562000295565b509392505050565b600082601f830112620003245762000323620001c0565b5b815162000336848260208601620002c1565b91505092915050565b600060208284031215620003585762000357620001b6565b5b600082015167ffffffffffffffff811115620003795762000378620001bb565b5b62000387848285016200030c565b91505092915050565b600081519050919050565b7f4e487b7100000000000000000000000000000000000000000000000000000000600052602260045260246000fd5b60006002820490506001821680620003e357607f821691505b602082108103620003f957620003f86200039b565b5b50919050565b60008190508160005260206000209050919050565b60006020601f8301049050919050565b600082821b905092915050565b600060088302620004637fffffffffffffffffffffffffffffffffffffffffffffffffffffffffffffffff8262000424565b6200046f868362000424565b95508019841693508086168417925050509392505050565b6000819050919050565b6000819050919050565b6000620004bc620004b6620004b08462000487565b62000491565b62000487565b9050919050565b6000819050919050565b620004d8836200049b565b620004f0620004e782620004c3565b84845462000431565b825550505050565b600090565b62000507620004f8565b62000514818484620004cd565b505050565b5b818110156200053c5762000530600082620004fd565b6001810190506200051a565b5050565b601f8211156200058b576200055581620003ff565b620005608462000414565b8101602085101562000570578190505b620005886200057f8562000414565b83018262000519565b50505b505050565b600082821c905092915050565b6000620005b06000198460080262000590565b1980831691505092915050565b6000620005cb83836200059d565b9150826002028217905092915050565b620005e68262000390565b67ffffffffffffffff811115620006025762000601620001db565b5b6200060e8254620003ca565b6200061b82828562000540565b600060209050601f8311600181146200065357600084156200063e578287015190505b6200064a8582620005bd565b865550620006ba565b601f1984166200066386620003ff565b60005b828110156200068d5784890151825560018201915060208501945060208101905062000666565b86831015620006ad5784890151620006a9601f8916826200059d565b8355505b6001600288020188555050505b505050505050565b600082825260208201905092915050565b6000620006e08262000390565b620006ec8185620006c2565b9350620006fe81856020860162000295565b6200070981620001ca565b840191505092915050565b60006040820190508181036000830152620007308185620006d3565b90508181036020830152620007468184620006d3565b90509392505050565b611849806200075f6000396000f3fe608060405234801561001057600080fd5b50600436106100885760003560e01c80638da5cb5b1161005b5780638da5cb5b14610113578063abaddd7f14610131578063e75c94dc1461014f578063f2fde38b1461016d57610088565b806306fdde031461008d578063392338f5146100ab57806344828659146100c757806384da92a7146100f7575b600080fd5b610095610189565b6040516100a29190610b2f565b60405180910390f35b6100c560048036038101906100c09190610c9a565b610217565b005b6100e160048036038101906100dc9190610d12565b610436565b6040516100ee9190610e43565b60405180910390f35b610111600480360381019061010c9190610d12565b6105b7565b005b61011b61065a565b6040516101289190610ea6565b60405180910390f35b610139610680565b6040516101469190610fed565b60405180910390f35b6101576108ac565b604051610164919061101e565b60405180910390f35b61018760048036038101906101829190611065565b6108b8565b005b60008054610196906110c1565b80601f01602080910402602001604051908101604052809291908181526020018280546101c2906110c1565b801561020f5780601f106101e45761010080835404028352916020019161020f565b820191906000526020600020905b8154815290600101906020018083116101f257829003601f168201915b505050505081565b600160009054906101000a900473ffffffffffffffffffffffffffffffffffffffff1673ffffffffffffffffffffffffffffffffffffffff163373ffffffffffffffffffffffffffffffffffffffff161461027157600080fd5b60008251116102b5576040517f08c379a00000000000000000000000000000000000000000000000000000000081526004016102ac9061113e565b60405180910390fd5b60008151116102f9576040517f08c379a00000000000000000000000000000000000000000000000000000000081526004016102f0906111aa565b60405180910390fd5b6103036002610a28565b600061030f6002610a3e565b90506000600360008381526020019081526020016000209050818160000181905550838160010190816103429190611376565b5060018160030160006101000a81548160ff021916908315150217905550828160020190816103719190611376565b50806004846040516103839190611484565b908152602001604051809103902060008201548160000155600182018160010190816103af91906114b1565b50600282018160020190816103c491906114b1565b506003820160009054906101000a900460ff168160030160006101000a81548160ff0219169083151502179055509050507fe6851f0b99a9d86e5d68a97f65218980851216ce297f789c6b6b7e82ca1d90c882858560405161042893929190611599565b60405180910390a150505050565b61043e610a75565b60048260405161044e9190611484565b908152602001604051809103902060405180608001604052908160008201548152602001600182018054610481906110c1565b80601f01602080910402602001604051908101604052809291908181526020018280546104ad906110c1565b80156104fa5780601f106104cf576101008083540402835291602001916104fa565b820191906000526020600020905b8154815290600101906020018083116104dd57829003601f168201915b50505050508152602001600282018054610513906110c1565b80601f016020809104026020016040519081016040528092919081815260200182805461053f906110c1565b801561058c5780601f106105615761010080835404028352916020019161058c565b820191906000526020600020905b81548152906001019060200180831161056f57829003601f168201915b505050505081526020016003820160009054906101000a900460ff1615151515815250509050919050565b600160009054906101000a900473ffffffffffffffffffffffffffffffffffffffff1673ffffffffffffffffffffffffffffffffffffffff163373ffffffffffffffffffffffffffffffffffffffff1614610647576040517f08c379a000000000000000000000000000000000000000000000000000000000815260040161063e90611650565b60405180910390fd5b80600090816106569190611376565b5050565b600160009054906101000a900473ffffffffffffffffffffffffffffffffffffffff1681565b6060600061068e6002610a3e565b905060008167ffffffffffffffff8111156106ac576106ab610b6f565b5b6040519080825280602002602001820160405280156106e557816020015b6106d2610a75565b8152602001906001900390816106ca5790505b50905060005b828110156108a3576000600182610702919061169f565b905060006003600083815260200190815260200160002090508060405180608001604052908160008201548152602001600182018054610741906110c1565b80601f016020809104026020016040519081016040528092919081815260200182805461076d906110c1565b80156107ba5780601f1061078f576101008083540402835291602001916107ba565b820191906000526020600020905b81548152906001019060200180831161079d57829003601f168201915b505050505081526020016002820180546107d3906110c1565b80601f01602080910402602001604051908101604052809291908181526020018280546107ff906110c1565b801561084c5780601f106108215761010080835404028352916020019161084c565b820191906000526020600020905b81548152906001019060200180831161082f57829003601f168201915b505050505081526020016003820160009054906101000a900460ff161515151581525050848481518110610883576108826116d3565b5b60200260200101819052505050808061089b90611702565b9150506106eb565b50809250505090565b60028060000154905081565b600160009054906101000a900473ffffffffffffffffffffffffffffffffffffffff1673ffffffffffffffffffffffffffffffffffffffff163373ffffffffffffffffffffffffffffffffffffffff1614610948576040517f08c379a000000000000000000000000000000000000000000000000000000000815260040161093f906117bc565b60405180910390fd5b80600160006101000a81548173ffffffffffffffffffffffffffffffffffffffff021916908373ffffffffffffffffffffffffffffffffffffffff16021790555050565b610a2482826040516024016109a29291906117dc565b6040516020818303038152906040527f4b5c4277000000000000000000000000000000000000000000000000000000007bffffffffffffffffffffffffffffffffffffffffffffffffffffffff19166020820180517bffffffffffffffffffffffffffffffffffffffffffffffffffffffff8381831617835250505050610a4c565b5050565b6001816000016000828254019250508190555050565b600081600001549050919050565b60008151905060006a636f6e736f6c652e6c6f679050602083016000808483855afa5050505050565b60405180608001604052806000815260200160608152602001606081526020016000151581525090565b600081519050919050565b600082825260208201905092915050565b60005b83811015610ad9578082015181840152602081019050610abe565b60008484015250505050565b6000601f19601f8301169050919050565b6000610b0182610a9f565b610b0b8185610aaa565b9350610b1b818560208601610abb565b610b2481610ae5565b840191505092915050565b60006020820190508181036000830152610b498184610af6565b905092915050565b6000604051905090565b600080fd5b600080fd5b600080fd5b600080fd5b7f4e487b7100000000000000000000000000000000000000000000000000000000600052604160045260246000fd5b610ba782610ae5565b810181811067ffffffffffffffff82111715610bc657610bc5610b6f565b5b80604052505050565b6000610bd9610b51565b9050610be58282610b9e565b919050565b600067ffffffffffffffff821115610c0557610c04610b6f565b5b610c0e82610ae5565b9050602081019050919050565b82818337600083830152505050565b6000610c3d610c3884610bea565b610bcf565b905082815260208101848484011115610c5957610c58610b6a565b5b610c64848285610c1b565b509392505050565b600082601f830112610c8157610c80610b65565b5b8135610c91848260208601610c2a565b91505092915050565b60008060408385031215610cb157610cb0610b5b565b5b600083013567ffffffffffffffff811115610ccf57610cce610b60565b5b610cdb85828601610c6c565b925050602083013567ffffffffffffffff811115610cfc57610cfb610b60565b5b610d0885828601610c6c565b9150509250929050565b600060208284031215610d2857610d27610b5b565b5b600082013567ffffffffffffffff811115610d4657610d45610b60565b5b610d5284828501610c6c565b91505092915050565b6000819050919050565b610d6e81610d5b565b82525050565b600082825260208201905092915050565b6000610d9082610a9f565b610d9a8185610d74565b9350610daa818560208601610abb565b610db381610ae5565b840191505092915050565b60008115159050919050565b610dd381610dbe565b82525050565b6000608083016000830151610df16000860182610d65565b5060208301518482036020860152610e098282610d85565b91505060408301518482036040860152610e238282610d85565b9150506060830151610e386060860182610dca565b508091505092915050565b60006020820190508181036000830152610e5d8184610dd9565b905092915050565b600073ffffffffffffffffffffffffffffffffffffffff82169050919050565b6000610e9082610e65565b9050919050565b610ea081610e85565b82525050565b6000602082019050610ebb6000830184610e97565b92915050565b600081519050919050565b600082825260208201905092915050565b6000819050602082019050919050565b6000608083016000830151610f056000860182610d65565b5060208301518482036020860152610f1d8282610d85565b91505060408301518482036040860152610f378282610d85565b9150506060830151610f4c6060860182610dca565b508091505092915050565b6000610f638383610eed565b905092915050565b6000602082019050919050565b6000610f8382610ec1565b610f8d8185610ecc565b935083602082028501610f9f85610edd565b8060005b85811015610fdb5784840389528151610fbc8582610f57565b9450610fc783610f6b565b925060208a01995050600181019050610fa3565b50829750879550505050505092915050565b600060208201905081810360008301526110078184610f78565b905092915050565b61101881610d5b565b82525050565b6000602082019050611033600083018461100f565b92915050565b61104281610e85565b811461104d57600080fd5b50565b60008135905061105f81611039565b92915050565b60006020828403121561107b5761107a610b5b565b5b600061108984828501611050565b91505092915050565b7f4e487b7100000000000000000000000000000000000000000000000000000000600052602260045260246000fd5b600060028204905060018216806110d957607f821691505b6020821081036110ec576110eb611092565b5b50919050565b7f5469746c65206973207265717569726564000000000000000000000000000000600082015250565b6000611128601183610aaa565b9150611133826110f2565b602082019050919050565b600060208201905081810360008301526111578161111b565b9050919050565b7f4861736820697320726571756972656400000000000000000000000000000000600082015250565b6000611194601083610aaa565b915061119f8261115e565b602082019050919050565b600060208201905081810360008301526111c381611187565b9050919050565b60008190508160005260206000209050919050565b60006020601f8301049050919050565b600082821b905092915050565b60006008830261122c7fffffffffffffffffffffffffffffffffffffffffffffffffffffffffffffffff826111ef565b61123686836111ef565b95508019841693508086168417925050509392505050565b6000819050919050565b600061127361126e61126984610d5b565b61124e565b610d5b565b9050919050565b6000819050919050565b61128d83611258565b6112a16112998261127a565b8484546111fc565b825550505050565b600090565b6112b66112a9565b6112c1818484611284565b505050565b5b818110156112e5576112da6000826112ae565b6001810190506112c7565b5050565b601f82111561132a576112fb816111ca565b611304846111df565b81016020851015611313578190505b61132761131f856111df565b8301826112c6565b50505b505050565b600082821c905092915050565b600061134d6000198460080261132f565b1980831691505092915050565b6000611366838361133c565b9150826002028217905092915050565b61137f82610a9f565b67ffffffffffffffff81111561139857611397610b6f565b5b6113a282546110c1565b6113ad8282856112e9565b600060209050601f8311600181146113e057600084156113ce578287015190505b6113d8858261135a565b865550611440565b601f1984166113ee866111ca565b60005b82811015611416578489015182556001820191506020850194506020810190506113f1565b86831015611433578489015161142f601f89168261133c565b8355505b6001600288020188555050505b505050505050565b600081905092915050565b600061145e82610a9f565b6114688185611448565b9350611478818560208601610abb565b80840191505092915050565b60006114908284611453565b915081905092915050565b6000815490506114aa816110c1565b9050919050565b8181036114bf575050611597565b6114c88261149b565b67ffffffffffffffff8111156114e1576114e0610b6f565b5b6114eb82546110c1565b6114f68282856112e9565b6000601f8311600181146115255760008415611513578287015490505b61151d858261135a565b865550611590565b601f198416611533876111ca565b965061153e866111ca565b60005b8281101561156657848901548255600182019150600185019450602081019050611541565b86831015611583578489015461157f601f89168261133c565b8355505b6001600288020188555050505b5050505050505b565b60006060820190506115ae600083018661100f565b81810360208301526115c08185610af6565b905081810360408301526115d48184610af6565b9050949350505050565b7f4f6e6c7920746865206f776e65722063616e2075706461746520746865206e6160008201527f6d65000000000000000000000000000000000000000000000000000000000000602082015250565b600061163a602283610aaa565b9150611645826115de565b604082019050919050565b600060208201905081810360008301526116698161162d565b9050919050565b7f4e487b7100000000000000000000000000000000000000000000000000000000600052601160045260246000fd5b60006116aa82610d5b565b91506116b583610d5b565b92508282019050808211156116cd576116cc611670565b5b92915050565b7f4e487b7100000000000000000000000000000000000000000000000000000000600052603260045260246000fd5b600061170d82610d5b565b91507fffffffffffffffffffffffffffffffffffffffffffffffffffffffffffffffff820361173f5761173e611670565b5b600182019050919050565b7f4f6e6c7920746865206f776e65722063616e207472616e73666572206f776e6560008201527f7273686970000000000000000000000000000000000000000000000000000000602082015250565b60006117a6602583610aaa565b91506117b18261174a565b604082019050919050565b600060208201905081810360008301526117d581611799565b9050919050565b600060408201905081810360008301526117f68185610af6565b9050818103602083015261180a8184610af6565b9050939250505056fea2646970667358221220add13ea6c285461ba65d119b0a3f6dd64b91720c6e433d2698797c287ff4ea0d64736f6c63430008110033","opcodes":"PUSH1 0x80 PUSH1 0x40 MSTORE CALLVALUE DUP1 ISZERO PUSH3 0x11 JUMPI PUSH1 0x0 DUP1 REVERT JUMPDEST POP PUSH1 0x40 MLOAD PUSH3 0x1FA8 CODESIZE SUB DUP1 PUSH3 0x1FA8 DUP4 CODECOPY DUP2 DUP2 ADD PUSH1 0x40 MSTORE DUP2 ADD SWAP1 PUSH3 0x37 SWAP2 SWAP1 PUSH3 0x33F JUMP JUMPDEST PUSH3 0x83 PUSH1 0x40 MLOAD DUP1 PUSH1 0x40 ADD PUSH1 0x40 MSTORE DUP1 PUSH1 0x19 DUP2 MSTORE PUSH1 0x20 ADD PUSH32 0x4465706C6F79696E6720626C6F672077697468206E616D653A00000000000000 DUP2 MSTORE POP DUP3 PUSH3 0xDD PUSH1 0x20 SHL PUSH3 0x98C OR PUSH1 0x20 SHR JUMP JUMPDEST DUP1 PUSH1 0x0 SWAP1 DUP2 PUSH3 0x94 SWAP2 SWAP1 PUSH3 0x5DB JUMP JUMPDEST POP CALLER PUSH1 0x1 PUSH1 0x0 PUSH2 0x100 EXP DUP2 SLOAD DUP2 PUSH20 0xFFFFFFFFFFFFFFFFFFFFFFFFFFFFFFFFFFFFFFFF MUL NOT AND SWAP1 DUP4 PUSH20 0xFFFFFFFFFFFFFFFFFFFFFFFFFFFFFFFFFFFFFFFF AND MUL OR SWAP1 SSTORE POP POP PUSH3 0x74F JUMP JUMPDEST PUSH3 0x17F DUP3 DUP3 PUSH1 0x40 MLOAD PUSH1 0x24 ADD PUSH3 0xF6 SWAP3 SWAP2 SWAP1 PUSH3 0x714 JUMP JUMPDEST PUSH1 0x40 MLOAD PUSH1 0x20 DUP2 DUP4 SUB SUB DUP2 MSTORE SWAP1 PUSH1 0x40 MSTORE PUSH32 0x4B5C427700000000000000000000000000000000000000000000000000000000 PUSH28 0xFFFFFFFFFFFFFFFFFFFFFFFFFFFFFFFFFFFFFFFFFFFFFFFFFFFFFFFF NOT AND PUSH1 0x20 DUP3 ADD DUP1 MLOAD PUSH28 0xFFFFFFFFFFFFFFFFFFFFFFFFFFFFFFFFFFFFFFFFFFFFFFFFFFFFFFFF DUP4 DUP2 DUP4 AND OR DUP4 MSTORE POP POP POP POP PUSH3 0x183 PUSH1 0x20 SHL PUSH1 0x20 SHR JUMP JUMPDEST POP POP JUMP JUMPDEST PUSH1 0x0 DUP2 MLOAD SWAP1 POP PUSH1 0x0 PUSH11 0x636F6E736F6C652E6C6F67 SWAP1 POP PUSH1 0x20 DUP4 ADD PUSH1 0x0 DUP1 DUP5 DUP4 DUP6 GAS STATICCALL POP POP POP POP POP JUMP JUMPDEST PUSH1 0x0 PUSH1 0x40 MLOAD SWAP1 POP SWAP1 JUMP JUMPDEST PUSH1 0x0 DUP1 REVERT JUMPDEST PUSH1 0x0 DUP1 REVERT JUMPDEST PUSH1 0x0 DUP1 REVERT JUMPDEST PUSH1 0x0 DUP1 REVERT JUMPDEST PUSH1 0x0 PUSH1 0x1F NOT PUSH1 0x1F DUP4 ADD AND SWAP1 POP SWAP2 SWAP1 POP JUMP JUMPDEST PUSH32 0x4E487B7100000000000000000000000000000000000000000000000000000000 PUSH1 0x0 MSTORE PUSH1 0x41 PUSH1 0x4 MSTORE PUSH1 0x24 PUSH1 0x0 REVERT JUMPDEST PUSH3 0x215 DUP3 PUSH3 0x1CA JUMP JUMPDEST DUP2 ADD DUP2 DUP2 LT PUSH8 0xFFFFFFFFFFFFFFFF DUP3 GT OR ISZERO PUSH3 0x237 JUMPI PUSH3 0x236 PUSH3 0x1DB JUMP JUMPDEST JUMPDEST DUP1 PUSH1 0x40 MSTORE POP POP POP JUMP JUMPDEST PUSH1 0x0 PUSH3 0x24C PUSH3 0x1AC JUMP JUMPDEST SWAP1 POP PUSH3 0x25A DUP3 DUP3 PUSH3 0x20A JUMP JUMPDEST SWAP2 SWAP1 POP JUMP JUMPDEST PUSH1 0x0 PUSH8 0xFFFFFFFFFFFFFFFF DUP3 GT ISZERO PUSH3 0x27D JUMPI PUSH3 0x27C PUSH3 0x1DB JUMP JUMPDEST JUMPDEST PUSH3 0x288 DUP3 PUSH3 0x1CA JUMP JUMPDEST SWAP1 POP PUSH1 0x20 DUP2 ADD SWAP1 POP SWAP2 SWAP1 POP JUMP JUMPDEST PUSH1 0x0 JUMPDEST DUP4 DUP2 LT ISZERO PUSH3 0x2B5 JUMPI DUP1 DUP3 ADD MLOAD DUP2 DUP5 ADD MSTORE PUSH1 0x20 DUP2 ADD SWAP1 POP PUSH3 0x298 JUMP JUMPDEST PUSH1 0x0 DUP5 DUP5 ADD MSTORE POP POP POP POP JUMP JUMPDEST PUSH1 0x0 PUSH3 0x2D8 PUSH3 0x2D2 DUP5 PUSH3 0x25F JUMP JUMPDEST PUSH3 0x240 JUMP JUMPDEST SWAP1 POP DUP3 DUP2 MSTORE PUSH1 0x20 DUP2 ADD DUP5 DUP5 DUP5 ADD GT ISZERO PUSH3 0x2F7 JUMPI PUSH3 0x2F6 PUSH3 0x1C5 JUMP JUMPDEST JUMPDEST PUSH3 0x304 DUP5 DUP3 DUP6 PUSH3 0x295 JUMP JUMPDEST POP SWAP4 SWAP3 POP POP POP JUMP JUMPDEST PUSH1 0x0 DUP3 PUSH1 0x1F DUP4 ADD SLT PUSH3 0x324 JUMPI PUSH3 0x323 PUSH3 0x1C0 JUMP JUMPDEST JUMPDEST DUP2 MLOAD PUSH3 0x336 DUP5 DUP3 PUSH1 0x20 DUP7 ADD PUSH3 0x2C1 JUMP JUMPDEST SWAP2 POP POP SWAP3 SWAP2 POP POP JUMP JUMPDEST PUSH1 0x0 PUSH1 0x20 DUP3 DUP5 SUB SLT ISZERO PUSH3 0x358 JUMPI PUSH3 0x357 PUSH3 0x1B6 JUMP JUMPDEST JUMPDEST PUSH1 0x0 DUP3 ADD MLOAD PUSH8 0xFFFFFFFFFFFFFFFF DUP2 GT ISZERO PUSH3 0x379 JUMPI PUSH3 0x378 PUSH3 0x1BB JUMP JUMPDEST JUMPDEST PUSH3 0x387 DUP5 DUP3 DUP6 ADD PUSH3 0x30C JUMP JUMPDEST SWAP2 POP POP SWAP3 SWAP2 POP POP JUMP JUMPDEST PUSH1 0x0 DUP2 MLOAD SWAP1 POP SWAP2 SWAP1 POP JUMP JUMPDEST PUSH32 0x4E487B7100000000000000000000000000000000000000000000000000000000 PUSH1 0x0 MSTORE PUSH1 0x22 PUSH1 0x4 MSTORE PUSH1 0x24 PUSH1 0x0 REVERT JUMPDEST PUSH1 0x0 PUSH1 0x2 DUP3 DIV SWAP1 POP PUSH1 0x1 DUP3 AND DUP1 PUSH3 0x3E3 JUMPI PUSH1 0x7F DUP3 AND SWAP2 POP JUMPDEST PUSH1 0x20 DUP3 LT DUP2 SUB PUSH3 0x3F9 JUMPI PUSH3 0x3F8 PUSH3 0x39B JUMP JUMPDEST JUMPDEST POP SWAP2 SWAP1 POP JUMP JUMPDEST PUSH1 0x0 DUP2 SWAP1 POP DUP2 PUSH1 0x0 MSTORE PUSH1 0x20 PUSH1 0x0 KECCAK256 SWAP1 POP SWAP2 SWAP1 POP JUMP JUMPDEST PUSH1 0x0 PUSH1 0x20 PUSH1 0x1F DUP4 ADD DIV SWAP1 POP SWAP2 SWAP1 POP JUMP JUMPDEST PUSH1 0x0 DUP3 DUP3 SHL SWAP1 POP SWAP3 SWAP2 POP POP JUMP JUMPDEST PUSH1 0x0 PUSH1 0x8 DUP4 MUL PUSH3 0x463 PUSH32 0xFFFFFFFFFFFFFFFFFFFFFFFFFFFFFFFFFFFFFFFFFFFFFFFFFFFFFFFFFFFFFFFF DUP3 PUSH3 0x424 JUMP JUMPDEST PUSH3 0x46F DUP7 DUP4 PUSH3 0x424 JUMP JUMPDEST SWAP6 POP DUP1 NOT DUP5 AND SWAP4 POP DUP1 DUP7 AND DUP5 OR SWAP3 POP POP POP SWAP4 SWAP3 POP POP POP JUMP JUMPDEST PUSH1 0x0 DUP2 SWAP1 POP SWAP2 SWAP1 POP JUMP JUMPDEST PUSH1 0x0 DUP2 SWAP1 POP SWAP2 SWAP1 POP JUMP JUMPDEST PUSH1 0x0 PUSH3 0x4BC PUSH3 0x4B6 PUSH3 0x4B0 DUP5 PUSH3 0x487 JUMP JUMPDEST PUSH3 0x491 JUMP JUMPDEST PUSH3 0x487 JUMP JUMPDEST SWAP1 POP SWAP2 SWAP1 POP JUMP JUMPDEST PUSH1 0x0 DUP2 SWAP1 POP SWAP2 SWAP1 POP JUMP JUMPDEST PUSH3 0x4D8 DUP4 PUSH3 0x49B JUMP JUMPDEST PUSH3 0x4F0 PUSH3 0x4E7 DUP3 PUSH3 0x4C3 JUMP JUMPDEST DUP5 DUP5 SLOAD PUSH3 0x431 JUMP JUMPDEST DUP3 SSTORE POP POP POP POP JUMP JUMPDEST PUSH1 0x0 SWAP1 JUMP JUMPDEST PUSH3 0x507 PUSH3 0x4F8 JUMP JUMPDEST PUSH3 0x514 DUP2 DUP5 DUP5 PUSH3 0x4CD JUMP JUMPDEST POP POP POP JUMP JUMPDEST JUMPDEST DUP2 DUP2 LT ISZERO PUSH3 0x53C JUMPI PUSH3 0x530 PUSH1 0x0 DUP3 PUSH3 0x4FD JUMP JUMPDEST PUSH1 0x1 DUP2 ADD SWAP1 POP PUSH3 0x51A JUMP JUMPDEST POP POP JUMP JUMPDEST PUSH1 0x1F DUP3 GT ISZERO PUSH3 0x58B JUMPI PUSH3 0x555 DUP2 PUSH3 0x3FF JUMP JUMPDEST PUSH3 0x560 DUP5 PUSH3 0x414 JUMP JUMPDEST DUP2 ADD PUSH1 0x20 DUP6 LT ISZERO PUSH3 0x570 JUMPI DUP2 SWAP1 POP JUMPDEST PUSH3 0x588 PUSH3 0x57F DUP6 PUSH3 0x414 JUMP JUMPDEST DUP4 ADD DUP3 PUSH3 0x519 JUMP JUMPDEST POP POP JUMPDEST POP POP POP JUMP JUMPDEST PUSH1 0x0 DUP3 DUP3 SHR SWAP1 POP SWAP3 SWAP2 POP POP JUMP JUMPDEST PUSH1 0x0 PUSH3 0x5B0 PUSH1 0x0 NOT DUP5 PUSH1 0x8 MUL PUSH3 0x590 JUMP JUMPDEST NOT DUP1 DUP4 AND SWAP2 POP POP SWAP3 SWAP2 POP POP JUMP JUMPDEST PUSH1 0x0 PUSH3 0x5CB DUP4 DUP4 PUSH3 0x59D JUMP JUMPDEST SWAP2 POP DUP3 PUSH1 0x2 MUL DUP3 OR SWAP1 POP SWAP3 SWAP2 POP POP JUMP JUMPDEST PUSH3 0x5E6 DUP3 PUSH3 0x390 JUMP JUMPDEST PUSH8 0xFFFFFFFFFFFFFFFF DUP2 GT ISZERO PUSH3 0x602 JUMPI PUSH3 0x601 PUSH3 0x1DB JUMP JUMPDEST JUMPDEST PUSH3 0x60E DUP3 SLOAD PUSH3 0x3CA JUMP JUMPDEST PUSH3 0x61B DUP3 DUP3 DUP6 PUSH3 0x540 JUMP JUMPDEST PUSH1 0x0 PUSH1 0x20 SWAP1 POP PUSH1 0x1F DUP4 GT PUSH1 0x1 DUP2 EQ PUSH3 0x653 JUMPI PUSH1 0x0 DUP5 ISZERO PUSH3 0x63E JUMPI DUP3 DUP8 ADD MLOAD SWAP1 POP JUMPDEST PUSH3 0x64A DUP6 DUP3 PUSH3 0x5BD JUMP JUMPDEST DUP7 SSTORE POP PUSH3 0x6BA JUMP JUMPDEST PUSH1 0x1F NOT DUP5 AND PUSH3 0x663 DUP7 PUSH3 0x3FF JUMP JUMPDEST PUSH1 0x0 JUMPDEST DUP3 DUP2 LT ISZERO PUSH3 0x68D JUMPI DUP5 DUP10 ADD MLOAD DUP3 SSTORE PUSH1 0x1 DUP3 ADD SWAP2 POP PUSH1 0x20 DUP6 ADD SWAP5 POP PUSH1 0x20 DUP2 ADD SWAP1 POP PUSH3 0x666 JUMP JUMPDEST DUP7 DUP4 LT ISZERO PUSH3 0x6AD JUMPI DUP5 DUP10 ADD MLOAD PUSH3 0x6A9 PUSH1 0x1F DUP10 AND DUP3 PUSH3 0x59D JUMP JUMPDEST DUP4 SSTORE POP JUMPDEST PUSH1 0x1 PUSH1 0x2 DUP9 MUL ADD DUP9 SSTORE POP POP POP JUMPDEST POP POP POP POP POP POP JUMP JUMPDEST PUSH1 0x0 DUP3 DUP3 MSTORE PUSH1 0x20 DUP3 ADD SWAP1 POP SWAP3 SWAP2 POP POP JUMP JUMPDEST PUSH1 0x0 PUSH3 0x6E0 DUP3 PUSH3 0x390 JUMP JUMPDEST PUSH3 0x6EC DUP2 DUP6 PUSH3 0x6C2 JUMP JUMPDEST SWAP4 POP PUSH3 0x6FE DUP2 DUP6 PUSH1 0x20 DUP7 ADD PUSH3 0x295 JUMP JUMPDEST PUSH3 0x709 DUP2 PUSH3 0x1CA JUMP JUMPDEST DUP5 ADD SWAP2 POP POP SWAP3 SWAP2 POP POP JUMP JUMPDEST PUSH1 0x0 PUSH1 0x40 DUP3 ADD SWAP1 POP DUP2 DUP2 SUB PUSH1 0x0 DUP4 ADD MSTORE PUSH3 0x730 DUP2 DUP6 PUSH3 0x6D3 JUMP JUMPDEST SWAP1 POP DUP2 DUP2 SUB PUSH1 0x20 DUP4 ADD MSTORE PUSH3 0x746 DUP2 DUP5 PUSH3 0x6D3 JUMP JUMPDEST SWAP1 POP SWAP4 SWAP3 POP POP POP JUMP JUMPDEST PUSH2 0x1849 DUP1 PUSH3 0x75F PUSH1 0x0 CODECOPY PUSH1 0x0 RETURN INVALID PUSH1 0x80 PUSH1 0x40 MSTORE CALLVALUE DUP1 ISZERO PUSH2 0x10 JUMPI PUSH1 0x0 DUP1 REVERT JUMPDEST POP PUSH1 0x4 CALLDATASIZE LT PUSH2 0x88 JUMPI PUSH1 0x0 CALLDATALOAD PUSH1 0xE0 SHR DUP1 PUSH4 0x8DA5CB5B GT PUSH2 0x5B JUMPI DUP1 PUSH4 0x8DA5CB5B EQ PUSH2 0x113 JUMPI DUP1 PUSH4 0xABADDD7F EQ PUSH2 0x131 JUMPI DUP1 PUSH4 0xE75C94DC EQ PUSH2 0x14F JUMPI DUP1 PUSH4 0xF2FDE38B EQ PUSH2 0x16D JUMPI PUSH2 0x88 JUMP JUMPDEST DUP1 PUSH4 0x6FDDE03 EQ PUSH2 0x8D JUMPI DUP1 PUSH4 0x392338F5 EQ PUSH2 0xAB JUMPI DUP1 PUSH4 0x44828659 EQ PUSH2 0xC7 JUMPI DUP1 PUSH4 0x84DA92A7 EQ PUSH2 0xF7 JUMPI JUMPDEST PUSH1 0x0 DUP1 REVERT JUMPDEST PUSH2 0x95 PUSH2 0x189 JUMP JUMPDEST PUSH1 0x40 MLOAD PUSH2 0xA2 SWAP2 SWAP1 PUSH2 0xB2F JUMP JUMPDEST PUSH1 0x40 MLOAD DUP1 SWAP2 SUB SWAP1 RETURN JUMPDEST PUSH2 0xC5 PUSH1 0x4 DUP1 CALLDATASIZE SUB DUP2 ADD SWAP1 PUSH2 0xC0 SWAP2 SWAP1 PUSH2 0xC9A JUMP JUMPDEST PUSH2 0x217 JUMP JUMPDEST STOP JUMPDEST PUSH2 0xE1 PUSH1 0x4 DUP1 CALLDATASIZE SUB DUP2 ADD SWAP1 PUSH2 0xDC SWAP2 SWAP1 PUSH2 0xD12 JUMP JUMPDEST PUSH2 0x436 JUMP JUMPDEST PUSH1 0x40 MLOAD PUSH2 0xEE SWAP2 SWAP1 PUSH2 0xE43 JUMP JUMPDEST PUSH1 0x40 MLOAD DUP1 SWAP2 SUB SWAP1 RETURN JUMPDEST PUSH2 0x111 PUSH1 0x4 DUP1 CALLDATASIZE SUB DUP2 ADD SWAP1 PUSH2 0x10C SWAP2 SWAP1 PUSH2 0xD12 JUMP JUMPDEST PUSH2 0x5B7 JUMP JUMPDEST STOP JUMPDEST PUSH2 0x11B PUSH2 0x65A JUMP JUMPDEST PUSH1 0x40 MLOAD PUSH2 0x128 SWAP2 SWAP1 PUSH2 0xEA6 JUMP JUMPDEST PUSH1 0x40 MLOAD DUP1 SWAP2 SUB SWAP1 RETURN JUMPDEST PUSH2 0x139 PUSH2 0x680 JUMP JUMPDEST PUSH1 0x40 MLOAD PUSH2 0x146 SWAP2 SWAP1 PUSH2 0xFED JUMP JUMPDEST PUSH1 0x40 MLOAD DUP1 SWAP2 SUB SWAP1 RETURN JUMPDEST PUSH2 0x157 PUSH2 0x8AC JUMP JUMPDEST PUSH1 0x40 MLOAD PUSH2 0x164 SWAP2 SWAP1 PUSH2 0x101E JUMP JUMPDEST PUSH1 0x40 MLOAD DUP1 SWAP2 SUB SWAP1 RETURN JUMPDEST PUSH2 0x187 PUSH1 0x4 DUP1 CALLDATASIZE SUB DUP2 ADD SWAP1 PUSH2 0x182 SWAP2 SWAP1 PUSH2 0x1065 JUMP JUMPDEST PUSH2 0x8B8 JUMP JUMPDEST STOP JUMPDEST PUSH1 0x0 DUP1 SLOAD PUSH2 0x196 SWAP1 PUSH2 0x10C1 JUMP JUMPDEST DUP1 PUSH1 0x1F ADD PUSH1 0x20 DUP1 SWAP2 DIV MUL PUSH1 0x20 ADD PUSH1 0x40 MLOAD SWAP1 DUP2 ADD PUSH1 0x40 MSTORE DUP1 SWAP3 SWAP2 SWAP1 DUP2 DUP2 MSTORE PUSH1 0x20 ADD DUP3 DUP1 SLOAD PUSH2 0x1C2 SWAP1 PUSH2 0x10C1 JUMP JUMPDEST DUP1 ISZERO PUSH2 0x20F JUMPI DUP1 PUSH1 0x1F LT PUSH2 0x1E4 JUMPI PUSH2 0x100 DUP1 DUP4 SLOAD DIV MUL DUP4 MSTORE SWAP2 PUSH1 0x20 ADD SWAP2 PUSH2 0x20F JUMP JUMPDEST DUP3 ADD SWAP2 SWAP1 PUSH1 0x0 MSTORE PUSH1 0x20 PUSH1 0x0 KECCAK256 SWAP1 JUMPDEST DUP2 SLOAD DUP2 MSTORE SWAP1 PUSH1 0x1 ADD SWAP1 PUSH1 0x20 ADD DUP1 DUP4 GT PUSH2 0x1F2 JUMPI DUP3 SWAP1 SUB PUSH1 0x1F AND DUP3 ADD SWAP2 JUMPDEST POP POP POP POP POP DUP2 JUMP JUMPDEST PUSH1 0x1 PUSH1 0x0 SWAP1 SLOAD SWAP1 PUSH2 0x100 EXP SWAP1 DIV PUSH20 0xFFFFFFFFFFFFFFFFFFFFFFFFFFFFFFFFFFFFFFFF AND PUSH20 0xFFFFFFFFFFFFFFFFFFFFFFFFFFFFFFFFFFFFFFFF AND CALLER PUSH20 0xFFFFFFFFFFFFFFFFFFFFFFFFFFFFFFFFFFFFFFFF AND EQ PUSH2 0x271 JUMPI PUSH1 0x0 DUP1 REVERT JUMPDEST PUSH1 0x0 DUP3 MLOAD GT PUSH2 0x2B5 JUMPI PUSH1 0x40 MLOAD PUSH32 0x8C379A000000000000000000000000000000000000000000000000000000000 DUP2 MSTORE PUSH1 0x4 ADD PUSH2 0x2AC SWAP1 PUSH2 0x113E JUMP JUMPDEST PUSH1 0x40 MLOAD DUP1 SWAP2 SUB SWAP1 REVERT JUMPDEST PUSH1 0x0 DUP2 MLOAD GT PUSH2 0x2F9 JUMPI PUSH1 0x40 MLOAD PUSH32 0x8C379A000000000000000000000000000000000000000000000000000000000 DUP2 MSTORE PUSH1 0x4 ADD PUSH2 0x2F0 SWAP1 PUSH2 0x11AA JUMP JUMPDEST PUSH1 0x40 MLOAD DUP1 SWAP2 SUB SWAP1 REVERT JUMPDEST PUSH2 0x303 PUSH1 0x2 PUSH2 0xA28 JUMP JUMPDEST PUSH1 0x0 PUSH2 0x30F PUSH1 0x2 PUSH2 0xA3E JUMP JUMPDEST SWAP1 POP PUSH1 0x0 PUSH1 0x3 PUSH1 0x0 DUP4 DUP2 MSTORE PUSH1 0x20 ADD SWAP1 DUP2 MSTORE PUSH1 0x20 ADD PUSH1 0x0 KECCAK256 SWAP1 POP DUP2 DUP2 PUSH1 0x0 ADD DUP2 SWAP1 SSTORE POP DUP4 DUP2 PUSH1 0x1 ADD SWAP1 DUP2 PUSH2 0x342 SWAP2 SWAP1 PUSH2 0x1376 JUMP JUMPDEST POP PUSH1 0x1 DUP2 PUSH1 0x3 ADD PUSH1 0x0 PUSH2 0x100 EXP DUP2 SLOAD DUP2 PUSH1 0xFF MUL NOT AND SWAP1 DUP4 ISZERO ISZERO MUL OR SWAP1 SSTORE POP DUP3 DUP2 PUSH1 0x2 ADD SWAP1 DUP2 PUSH2 0x371 SWAP2 SWAP1 PUSH2 0x1376 JUMP JUMPDEST POP DUP1 PUSH1 0x4 DUP5 PUSH1 0x40 MLOAD PUSH2 0x383 SWAP2 SWAP1 PUSH2 0x1484 JUMP JUMPDEST SWAP1 DUP2 MSTORE PUSH1 0x20 ADD PUSH1 0x40 MLOAD DUP1 SWAP2 SUB SWAP1 KECCAK256 PUSH1 0x0 DUP3 ADD SLOAD DUP2 PUSH1 0x0 ADD SSTORE PUSH1 0x1 DUP3 ADD DUP2 PUSH1 0x1 ADD SWAP1 DUP2 PUSH2 0x3AF SWAP2 SWAP1 PUSH2 0x14B1 JUMP JUMPDEST POP PUSH1 0x2 DUP3 ADD DUP2 PUSH1 0x2 ADD SWAP1 DUP2 PUSH2 0x3C4 SWAP2 SWAP1 PUSH2 0x14B1 JUMP JUMPDEST POP PUSH1 0x3 DUP3 ADD PUSH1 0x0 SWAP1 SLOAD SWAP1 PUSH2 0x100 EXP SWAP1 DIV PUSH1 0xFF AND DUP2 PUSH1 0x3 ADD PUSH1 0x0 PUSH2 0x100 EXP DUP2 SLOAD DUP2 PUSH1 0xFF MUL NOT AND SWAP1 DUP4 ISZERO ISZERO MUL OR SWAP1 SSTORE POP SWAP1 POP POP PUSH32 0xE6851F0B99A9D86E5D68A97F65218980851216CE297F789C6B6B7E82CA1D90C8 DUP3 DUP6 DUP6 PUSH1 0x40 MLOAD PUSH2 0x428 SWAP4 SWAP3 SWAP2 SWAP1 PUSH2 0x1599 JUMP JUMPDEST PUSH1 0x40 MLOAD DUP1 SWAP2 SUB SWAP1 LOG1 POP POP POP POP JUMP JUMPDEST PUSH2 0x43E PUSH2 0xA75 JUMP JUMPDEST PUSH1 0x4 DUP3 PUSH1 0x40 MLOAD PUSH2 0x44E SWAP2 SWAP1 PUSH2 0x1484 JUMP JUMPDEST SWAP1 DUP2 MSTORE PUSH1 0x20 ADD PUSH1 0x40 MLOAD DUP1 SWAP2 SUB SWAP1 KECCAK256 PUSH1 0x40 MLOAD DUP1 PUSH1 0x80 ADD PUSH1 0x40 MSTORE SWAP1 DUP2 PUSH1 0x0 DUP3 ADD SLOAD DUP2 MSTORE PUSH1 0x20 ADD PUSH1 0x1 DUP3 ADD DUP1 SLOAD PUSH2 0x481 SWAP1 PUSH2 0x10C1 JUMP JUMPDEST DUP1 PUSH1 0x1F ADD PUSH1 0x20 DUP1 SWAP2 DIV MUL PUSH1 0x20 ADD PUSH1 0x40 MLOAD SWAP1 DUP2 ADD PUSH1 0x40 MSTORE DUP1 SWAP3 SWAP2 SWAP1 DUP2 DUP2 MSTORE PUSH1 0x20 ADD DUP3 DUP1 SLOAD PUSH2 0x4AD SWAP1 PUSH2 0x10C1 JUMP JUMPDEST DUP1 ISZERO PUSH2 0x4FA JUMPI DUP1 PUSH1 0x1F LT PUSH2 0x4CF JUMPI PUSH2 0x100 DUP1 DUP4 SLOAD DIV MUL DUP4 MSTORE SWAP2 PUSH1 0x20 ADD SWAP2 PUSH2 0x4FA JUMP JUMPDEST DUP3 ADD SWAP2 SWAP1 PUSH1 0x0 MSTORE PUSH1 0x20 PUSH1 0x0 KECCAK256 SWAP1 JUMPDEST DUP2 SLOAD DUP2 MSTORE SWAP1 PUSH1 0x1 ADD SWAP1 PUSH1 0x20 ADD DUP1 DUP4 GT PUSH2 0x4DD JUMPI DUP3 SWAP1 SUB PUSH1 0x1F AND DUP3 ADD SWAP2 JUMPDEST POP POP POP POP POP DUP2 MSTORE PUSH1 0x20 ADD PUSH1 0x2 DUP3 ADD DUP1 SLOAD PUSH2 0x513 SWAP1 PUSH2 0x10C1 JUMP JUMPDEST DUP1 PUSH1 0x1F ADD PUSH1 0x20 DUP1 SWAP2 DIV MUL PUSH1 0x20 ADD PUSH1 0x40 MLOAD SWAP1 DUP2 ADD PUSH1 0x40 MSTORE DUP1 SWAP3 SWAP2 SWAP1 DUP2 DUP2 MSTORE PUSH1 0x20 ADD DUP3 DUP1 SLOAD PUSH2 0x53F SWAP1 PUSH2 0x10C1 JUMP JUMPDEST DUP1 ISZERO PUSH2 0x58C JUMPI DUP1 PUSH1 0x1F LT PUSH2 0x561 JUMPI PUSH2 0x100 DUP1 DUP4 SLOAD DIV MUL DUP4 MSTORE SWAP2 PUSH1 0x20 ADD SWAP2 PUSH2 0x58C JUMP JUMPDEST DUP3 ADD SWAP2 SWAP1 PUSH1 0x0 MSTORE PUSH1 0x20 PUSH1 0x0 KECCAK256 SWAP1 JUMPDEST DUP2 SLOAD DUP2 MSTORE SWAP1 PUSH1 0x1 ADD SWAP1 PUSH1 0x20 ADD DUP1 DUP4 GT PUSH2 0x56F JUMPI DUP3 SWAP1 SUB PUSH1 0x1F AND DUP3 ADD SWAP2 JUMPDEST POP POP POP POP POP DUP2 MSTORE PUSH1 0x20 ADD PUSH1 0x3 DUP3 ADD PUSH1 0x0 SWAP1 SLOAD SWAP1 PUSH2 0x100 EXP SWAP1 DIV PUSH1 0xFF AND ISZERO ISZERO ISZERO ISZERO DUP2 MSTORE POP POP SWAP1 POP SWAP2 SWAP1 POP JUMP JUMPDEST PUSH1 0x1 PUSH1 0x0 SWAP1 SLOAD SWAP1 PUSH2 0x100 EXP SWAP1 DIV PUSH20 0xFFFFFFFFFFFFFFFFFFFFFFFFFFFFFFFFFFFFFFFF AND PUSH20 0xFFFFFFFFFFFFFFFFFFFFFFFFFFFFFFFFFFFFFFFF AND CALLER PUSH20 0xFFFFFFFFFFFFFFFFFFFFFFFFFFFFFFFFFFFFFFFF AND EQ PUSH2 0x647 JUMPI PUSH1 0x40 MLOAD PUSH32 0x8C379A000000000000000000000000000000000000000000000000000000000 DUP2 MSTORE PUSH1 0x4 ADD PUSH2 0x63E SWAP1 PUSH2 0x1650 JUMP JUMPDEST PUSH1 0x40 MLOAD DUP1 SWAP2 SUB SWAP1 REVERT JUMPDEST DUP1 PUSH1 0x0 SWAP1 DUP2 PUSH2 0x656 SWAP2 SWAP1 PUSH2 0x1376 JUMP JUMPDEST POP POP JUMP JUMPDEST PUSH1 0x1 PUSH1 0x0 SWAP1 SLOAD SWAP1 PUSH2 0x100 EXP SWAP1 DIV PUSH20 0xFFFFFFFFFFFFFFFFFFFFFFFFFFFFFFFFFFFFFFFF AND DUP2 JUMP JUMPDEST PUSH1 0x60 PUSH1 0x0 PUSH2 0x68E PUSH1 0x2 PUSH2 0xA3E JUMP JUMPDEST SWAP1 POP PUSH1 0x0 DUP2 PUSH8 0xFFFFFFFFFFFFFFFF DUP2 GT ISZERO PUSH2 0x6AC JUMPI PUSH2 0x6AB PUSH2 0xB6F JUMP JUMPDEST JUMPDEST PUSH1 0x40 MLOAD SWAP1 DUP1 DUP3 MSTORE DUP1 PUSH1 0x20 MUL PUSH1 0x20 ADD DUP3 ADD PUSH1 0x40 MSTORE DUP1 ISZERO PUSH2 0x6E5 JUMPI DUP2 PUSH1 0x20 ADD JUMPDEST PUSH2 0x6D2 PUSH2 0xA75 JUMP JUMPDEST DUP2 MSTORE PUSH1 0x20 ADD SWAP1 PUSH1 0x1 SWAP1 SUB SWAP1 DUP2 PUSH2 0x6CA JUMPI SWAP1 POP JUMPDEST POP SWAP1 POP PUSH1 0x0 JUMPDEST DUP3 DUP2 LT ISZERO PUSH2 0x8A3 JUMPI PUSH1 0x0 PUSH1 0x1 DUP3 PUSH2 0x702 SWAP2 SWAP1 PUSH2 0x169F JUMP JUMPDEST SWAP1 POP PUSH1 0x0 PUSH1 0x3 PUSH1 0x0 DUP4 DUP2 MSTORE PUSH1 0x20 ADD SWAP1 DUP2 MSTORE PUSH1 0x20 ADD PUSH1 0x0 KECCAK256 SWAP1 POP DUP1 PUSH1 0x40 MLOAD DUP1 PUSH1 0x80 ADD PUSH1 0x40 MSTORE SWAP1 DUP2 PUSH1 0x0 DUP3 ADD SLOAD DUP2 MSTORE PUSH1 0x20 ADD PUSH1 0x1 DUP3 ADD DUP1 SLOAD PUSH2 0x741 SWAP1 PUSH2 0x10C1 JUMP JUMPDEST DUP1 PUSH1 0x1F ADD PUSH1 0x20 DUP1 SWAP2 DIV MUL PUSH1 0x20 ADD PUSH1 0x40 MLOAD SWAP1 DUP2 ADD PUSH1 0x40 MSTORE DUP1 SWAP3 SWAP2 SWAP1 DUP2 DUP2 MSTORE PUSH1 0x20 ADD DUP3 DUP1 SLOAD PUSH2 0x76D SWAP1 PUSH2 0x10C1 JUMP JUMPDEST DUP1 ISZERO PUSH2 0x7BA JUMPI DUP1 PUSH1 0x1F LT PUSH2 0x78F JUMPI PUSH2 0x100 DUP1 DUP4 SLOAD DIV MUL DUP4 MSTORE SWAP2 PUSH1 0x20 ADD SWAP2 PUSH2 0x7BA JUMP JUMPDEST DUP3 ADD SWAP2 SWAP1 PUSH1 0x0 MSTORE PUSH1 0x20 PUSH1 0x0 KECCAK256 SWAP1 JUMPDEST DUP2 SLOAD DUP2 MSTORE SWAP1 PUSH1 0x1 ADD SWAP1 PUSH1 0x20 ADD DUP1 DUP4 GT PUSH2 0x79D JUMPI DUP3 SWAP1 SUB PUSH1 0x1F AND DUP3 ADD SWAP2 JUMPDEST POP POP POP POP POP DUP2 MSTORE PUSH1 0x20 ADD PUSH1 0x2 DUP3 ADD DUP1 SLOAD PUSH2 0x7D3 SWAP1 PUSH2 0x10C1 JUMP JUMPDEST DUP1 PUSH1 0x1F ADD PUSH1 0x20 DUP1 SWAP2 DIV MUL PUSH1 0x20 ADD PUSH1 0x40 MLOAD SWAP1 DUP2 ADD PUSH1 0x40 MSTORE DUP1 SWAP3 SWAP2 SWAP1 DUP2 DUP2 MSTORE PUSH1 0x20 ADD DUP3 DUP1 SLOAD PUSH2 0x7FF SWAP1 PUSH2 0x10C1 JUMP JUMPDEST DUP1 ISZERO PUSH2 0x84C JUMPI DUP1 PUSH1 0x1F LT PUSH2 0x821 JUMPI PUSH2 0x100 DUP1 DUP4 SLOAD DIV MUL DUP4 MSTORE SWAP2 PUSH1 0x20 ADD SWAP2 PUSH2 0x84C JUMP JUMPDEST DUP3 ADD SWAP2 SWAP1 PUSH1 0x0 MSTORE PUSH1 0x20 PUSH1 0x0 KECCAK256 SWAP1 JUMPDEST DUP2 SLOAD DUP2 MSTORE SWAP1 PUSH1 0x1 ADD SWAP1 PUSH1 0x20 ADD DUP1 DUP4 GT PUSH2 0x82F JUMPI DUP3 SWAP1 SUB PUSH1 0x1F AND DUP3 ADD SWAP2 JUMPDEST POP POP POP POP POP DUP2 MSTORE PUSH1 0x20 ADD PUSH1 0x3 DUP3 ADD PUSH1 0x0 SWAP1 SLOAD SWAP1 PUSH2 0x100 EXP SWAP1 DIV PUSH1 0xFF AND ISZERO ISZERO ISZERO ISZERO DUP2 MSTORE POP POP DUP5 DUP5 DUP2 MLOAD DUP2 LT PUSH2 0x883 JUMPI PUSH2 0x882 PUSH2 0x16D3 JUMP JUMPDEST JUMPDEST PUSH1 0x20 MUL PUSH1 0x20 ADD ADD DUP2 SWAP1 MSTORE POP POP POP DUP1 DUP1 PUSH2 0x89B SWAP1 PUSH2 0x1702 JUMP JUMPDEST SWAP2 POP POP PUSH2 0x6EB JUMP JUMPDEST POP DUP1 SWAP3 POP POP POP SWAP1 JUMP JUMPDEST PUSH1 0x2 DUP1 PUSH1 0x0 ADD SLOAD SWAP1 POP DUP2 JUMP JUMPDEST PUSH1 0x1 PUSH1 0x0 SWAP1 SLOAD SWAP1 PUSH2 0x100 EXP SWAP1 DIV PUSH20 0xFFFFFFFFFFFFFFFFFFFFFFFFFFFFFFFFFFFFFFFF AND PUSH20 0xFFFFFFFFFFFFFFFFFFFFFFFFFFFFFFFFFFFFFFFF AND CALLER PUSH20 0xFFFFFFFFFFFFFFFFFFFFFFFFFFFFFFFFFFFFFFFF AND EQ PUSH2 0x948 JUMPI PUSH1 0x40 MLOAD PUSH32 0x8C379A000000000000000000000000000000000000000000000000000000000 DUP2 MSTORE PUSH1 0x4 ADD PUSH2 0x93F SWAP1 PUSH2 0x17BC JUMP JUMPDEST PUSH1 0x40 MLOAD DUP1 SWAP2 SUB SWAP1 REVERT JUMPDEST DUP1 PUSH1 0x1 PUSH1 0x0 PUSH2 0x100 EXP DUP2 SLOAD DUP2 PUSH20 0xFFFFFFFFFFFFFFFFFFFFFFFFFFFFFFFFFFFFFFFF MUL NOT AND SWAP1 DUP4 PUSH20 0xFFFFFFFFFFFFFFFFFFFFFFFFFFFFFFFFFFFFFFFF AND MUL OR SWAP1 SSTORE POP POP JUMP JUMPDEST PUSH2 0xA24 DUP3 DUP3 PUSH1 0x40 MLOAD PUSH1 0x24 ADD PUSH2 0x9A2 SWAP3 SWAP2 SWAP1 PUSH2 0x17DC JUMP JUMPDEST PUSH1 0x40 MLOAD PUSH1 0x20 DUP2 DUP4 SUB SUB DUP2 MSTORE SWAP1 PUSH1 0x40 MSTORE PUSH32 0x4B5C427700000000000000000000000000000000000000000000000000000000 PUSH28 0xFFFFFFFFFFFFFFFFFFFFFFFFFFFFFFFFFFFFFFFFFFFFFFFFFFFFFFFF NOT AND PUSH1 0x20 DUP3 ADD DUP1 MLOAD PUSH28 0xFFFFFFFFFFFFFFFFFFFFFFFFFFFFFFFFFFFFFFFFFFFFFFFFFFFFFFFF DUP4 DUP2 DUP4 AND OR DUP4 MSTORE POP POP POP POP PUSH2 0xA4C JUMP JUMPDEST POP POP JUMP JUMPDEST PUSH1 0x1 DUP2 PUSH1 0x0 ADD PUSH1 0x0 DUP3 DUP3 SLOAD ADD SWAP3 POP POP DUP2 SWAP1 SSTORE POP POP JUMP JUMPDEST PUSH1 0x0 DUP2 PUSH1 0x0 ADD SLOAD SWAP1 POP SWAP2 SWAP1 POP JUMP JUMPDEST PUSH1 0x0 DUP2 MLOAD SWAP1 POP PUSH1 0x0 PUSH11 0x636F6E736F6C652E6C6F67 SWAP1 POP PUSH1 0x20 DUP4 ADD PUSH1 0x0 DUP1 DUP5 DUP4 DUP6 GAS STATICCALL POP POP POP POP POP JUMP JUMPDEST PUSH1 0x40 MLOAD DUP1 PUSH1 0x80 ADD PUSH1 0x40 MSTORE DUP1 PUSH1 0x0 DUP2 MSTORE PUSH1 0x20 ADD PUSH1 0x60 DUP2 MSTORE PUSH1 0x20 ADD PUSH1 0x60 DUP2 MSTORE PUSH1 0x20 ADD PUSH1 0x0 ISZERO ISZERO DUP2 MSTORE POP SWAP1 JUMP JUMPDEST PUSH1 0x0 DUP2 MLOAD SWAP1 POP SWAP2 SWAP1 POP JUMP JUMPDEST PUSH1 0x0 DUP3 DUP3 MSTORE PUSH1 0x20 DUP3 ADD SWAP1 POP SWAP3 SWAP2 POP POP JUMP JUMPDEST PUSH1 0x0 JUMPDEST DUP4 DUP2 LT ISZERO PUSH2 0xAD9 JUMPI DUP1 DUP3 ADD MLOAD DUP2 DUP5 ADD MSTORE PUSH1 0x20 DUP2 ADD SWAP1 POP PUSH2 0xABE JUMP JUMPDEST PUSH1 0x0 DUP5 DUP5 ADD MSTORE POP POP POP POP JUMP JUMPDEST PUSH1 0x0 PUSH1 0x1F NOT PUSH1 0x1F DUP4 ADD AND SWAP1 POP SWAP2 SWAP1 POP JUMP JUMPDEST PUSH1 0x0 PUSH2 0xB01 DUP3 PUSH2 0xA9F JUMP JUMPDEST PUSH2 0xB0B DUP2 DUP6 PUSH2 0xAAA JUMP JUMPDEST SWAP4 POP PUSH2 0xB1B DUP2 DUP6 PUSH1 0x20 DUP7 ADD PUSH2 0xABB JUMP JUMPDEST PUSH2 0xB24 DUP2 PUSH2 0xAE5 JUMP JUMPDEST DUP5 ADD SWAP2 POP POP SWAP3 SWAP2 POP POP JUMP JUMPDEST PUSH1 0x0 PUSH1 0x20 DUP3 ADD SWAP1 POP DUP2 DUP2 SUB PUSH1 0x0 DUP4 ADD MSTORE PUSH2 0xB49 DUP2 DUP5 PUSH2 0xAF6 JUMP JUMPDEST SWAP1 POP SWAP3 SWAP2 POP POP JUMP JUMPDEST PUSH1 0x0 PUSH1 0x40 MLOAD SWAP1 POP SWAP1 JUMP JUMPDEST PUSH1 0x0 DUP1 REVERT JUMPDEST PUSH1 0x0 DUP1 REVERT JUMPDEST PUSH1 0x0 DUP1 REVERT JUMPDEST PUSH1 0x0 DUP1 REVERT JUMPDEST PUSH32 0x4E487B7100000000000000000000000000000000000000000000000000000000 PUSH1 0x0 MSTORE PUSH1 0x41 PUSH1 0x4 MSTORE PUSH1 0x24 PUSH1 0x0 REVERT JUMPDEST PUSH2 0xBA7 DUP3 PUSH2 0xAE5 JUMP JUMPDEST DUP2 ADD DUP2 DUP2 LT PUSH8 0xFFFFFFFFFFFFFFFF DUP3 GT OR ISZERO PUSH2 0xBC6 JUMPI PUSH2 0xBC5 PUSH2 0xB6F JUMP JUMPDEST JUMPDEST DUP1 PUSH1 0x40 MSTORE POP POP POP JUMP JUMPDEST PUSH1 0x0 PUSH2 0xBD9 PUSH2 0xB51 JUMP JUMPDEST SWAP1 POP PUSH2 0xBE5 DUP3 DUP3 PUSH2 0xB9E JUMP JUMPDEST SWAP2 SWAP1 POP JUMP JUMPDEST PUSH1 0x0 PUSH8 0xFFFFFFFFFFFFFFFF DUP3 GT ISZERO PUSH2 0xC05 JUMPI PUSH2 0xC04 PUSH2 0xB6F JUMP JUMPDEST JUMPDEST PUSH2 0xC0E DUP3 PUSH2 0xAE5 JUMP JUMPDEST SWAP1 POP PUSH1 0x20 DUP2 ADD SWAP1 POP SWAP2 SWAP1 POP JUMP JUMPDEST DUP3 DUP2 DUP4 CALLDATACOPY PUSH1 0x0 DUP4 DUP4 ADD MSTORE POP POP POP JUMP JUMPDEST PUSH1 0x0 PUSH2 0xC3D PUSH2 0xC38 DUP5 PUSH2 0xBEA JUMP JUMPDEST PUSH2 0xBCF JUMP JUMPDEST SWAP1 POP DUP3 DUP2 MSTORE PUSH1 0x20 DUP2 ADD DUP5 DUP5 DUP5 ADD GT ISZERO PUSH2 0xC59 JUMPI PUSH2 0xC58 PUSH2 0xB6A JUMP JUMPDEST JUMPDEST PUSH2 0xC64 DUP5 DUP3 DUP6 PUSH2 0xC1B JUMP JUMPDEST POP SWAP4 SWAP3 POP POP POP JUMP JUMPDEST PUSH1 0x0 DUP3 PUSH1 0x1F DUP4 ADD SLT PUSH2 0xC81 JUMPI PUSH2 0xC80 PUSH2 0xB65 JUMP JUMPDEST JUMPDEST DUP2 CALLDATALOAD PUSH2 0xC91 DUP5 DUP3 PUSH1 0x20 DUP7 ADD PUSH2 0xC2A JUMP JUMPDEST SWAP2 POP POP SWAP3 SWAP2 POP POP JUMP JUMPDEST PUSH1 0x0 DUP1 PUSH1 0x40 DUP4 DUP6 SUB SLT ISZERO PUSH2 0xCB1 JUMPI PUSH2 0xCB0 PUSH2 0xB5B JUMP JUMPDEST JUMPDEST PUSH1 0x0 DUP4 ADD CALLDATALOAD PUSH8 0xFFFFFFFFFFFFFFFF DUP2 GT ISZERO PUSH2 0xCCF JUMPI PUSH2 0xCCE PUSH2 0xB60 JUMP JUMPDEST JUMPDEST PUSH2 0xCDB DUP6 DUP3 DUP7 ADD PUSH2 0xC6C JUMP JUMPDEST SWAP3 POP POP PUSH1 0x20 DUP4 ADD CALLDATALOAD PUSH8 0xFFFFFFFFFFFFFFFF DUP2 GT ISZERO PUSH2 0xCFC JUMPI PUSH2 0xCFB PUSH2 0xB60 JUMP JUMPDEST JUMPDEST PUSH2 0xD08 DUP6 DUP3 DUP7 ADD PUSH2 0xC6C JUMP JUMPDEST SWAP2 POP POP SWAP3 POP SWAP3 SWAP1 POP JUMP JUMPDEST PUSH1 0x0 PUSH1 0x20 DUP3 DUP5 SUB SLT ISZERO PUSH2 0xD28 JUMPI PUSH2 0xD27 PUSH2 0xB5B JUMP JUMPDEST JUMPDEST PUSH1 0x0 DUP3 ADD CALLDATALOAD PUSH8 0xFFFFFFFFFFFFFFFF DUP2 GT ISZERO PUSH2 0xD46 JUMPI PUSH2 0xD45 PUSH2 0xB60 JUMP JUMPDEST JUMPDEST PUSH2 0xD52 DUP5 DUP3 DUP6 ADD PUSH2 0xC6C JUMP JUMPDEST SWAP2 POP POP SWAP3 SWAP2 POP POP JUMP JUMPDEST PUSH1 0x0 DUP2 SWAP1 POP SWAP2 SWAP1 POP JUMP JUMPDEST PUSH2 0xD6E DUP2 PUSH2 0xD5B JUMP JUMPDEST DUP3 MSTORE POP POP JUMP JUMPDEST PUSH1 0x0 DUP3 DUP3 MSTORE PUSH1 0x20 DUP3 ADD SWAP1 POP SWAP3 SWAP2 POP POP JUMP JUMPDEST PUSH1 0x0 PUSH2 0xD90 DUP3 PUSH2 0xA9F JUMP JUMPDEST PUSH2 0xD9A DUP2 DUP6 PUSH2 0xD74 JUMP JUMPDEST SWAP4 POP PUSH2 0xDAA DUP2 DUP6 PUSH1 0x20 DUP7 ADD PUSH2 0xABB JUMP JUMPDEST PUSH2 0xDB3 DUP2 PUSH2 0xAE5 JUMP JUMPDEST DUP5 ADD SWAP2 POP POP SWAP3 SWAP2 POP POP JUMP JUMPDEST PUSH1 0x0 DUP2 ISZERO ISZERO SWAP1 POP SWAP2 SWAP1 POP JUMP JUMPDEST PUSH2 0xDD3 DUP2 PUSH2 0xDBE JUMP JUMPDEST DUP3 MSTORE POP POP JUMP JUMPDEST PUSH1 0x0 PUSH1 0x80 DUP4 ADD PUSH1 0x0 DUP4 ADD MLOAD PUSH2 0xDF1 PUSH1 0x0 DUP7 ADD DUP3 PUSH2 0xD65 JUMP JUMPDEST POP PUSH1 0x20 DUP4 ADD MLOAD DUP5 DUP3 SUB PUSH1 0x20 DUP7 ADD MSTORE PUSH2 0xE09 DUP3 DUP3 PUSH2 0xD85 JUMP JUMPDEST SWAP2 POP POP PUSH1 0x40 DUP4 ADD MLOAD DUP5 DUP3 SUB PUSH1 0x40 DUP7 ADD MSTORE PUSH2 0xE23 DUP3 DUP3 PUSH2 0xD85 JUMP JUMPDEST SWAP2 POP POP PUSH1 0x60 DUP4 ADD MLOAD PUSH2 0xE38 PUSH1 0x60 DUP7 ADD DUP3 PUSH2 0xDCA JUMP JUMPDEST POP DUP1 SWAP2 POP POP SWAP3 SWAP2 POP POP JUMP JUMPDEST PUSH1 0x0 PUSH1 0x20 DUP3 ADD SWAP1 POP DUP2 DUP2 SUB PUSH1 0x0 DUP4 ADD MSTORE PUSH2 0xE5D DUP2 DUP5 PUSH2 0xDD9 JUMP JUMPDEST SWAP1 POP SWAP3 SWAP2 POP POP JUMP JUMPDEST PUSH1 0x0 PUSH20 0xFFFFFFFFFFFFFFFFFFFFFFFFFFFFFFFFFFFFFFFF DUP3 AND SWAP1 POP SWAP2 SWAP1 POP JUMP JUMPDEST PUSH1 0x0 PUSH2 0xE90 DUP3 PUSH2 0xE65 JUMP JUMPDEST SWAP1 POP SWAP2 SWAP1 POP JUMP JUMPDEST PUSH2 0xEA0 DUP2 PUSH2 0xE85 JUMP JUMPDEST DUP3 MSTORE POP POP JUMP JUMPDEST PUSH1 0x0 PUSH1 0x20 DUP3 ADD SWAP1 POP PUSH2 0xEBB PUSH1 0x0 DUP4 ADD DUP5 PUSH2 0xE97 JUMP JUMPDEST SWAP3 SWAP2 POP POP JUMP JUMPDEST PUSH1 0x0 DUP2 MLOAD SWAP1 POP SWAP2 SWAP1 POP JUMP JUMPDEST PUSH1 0x0 DUP3 DUP3 MSTORE PUSH1 0x20 DUP3 ADD SWAP1 POP SWAP3 SWAP2 POP POP JUMP JUMPDEST PUSH1 0x0 DUP2 SWAP1 POP PUSH1 0x20 DUP3 ADD SWAP1 POP SWAP2 SWAP1 POP JUMP JUMPDEST PUSH1 0x0 PUSH1 0x80 DUP4 ADD PUSH1 0x0 DUP4 ADD MLOAD PUSH2 0xF05 PUSH1 0x0 DUP7 ADD DUP3 PUSH2 0xD65 JUMP JUMPDEST POP PUSH1 0x20 DUP4 ADD MLOAD DUP5 DUP3 SUB PUSH1 0x20 DUP7 ADD MSTORE PUSH2 0xF1D DUP3 DUP3 PUSH2 0xD85 JUMP JUMPDEST SWAP2 POP POP PUSH1 0x40 DUP4 ADD MLOAD DUP5 DUP3 SUB PUSH1 0x40 DUP7 ADD MSTORE PUSH2 0xF37 DUP3 DUP3 PUSH2 0xD85 JUMP JUMPDEST SWAP2 POP POP PUSH1 0x60 DUP4 ADD MLOAD PUSH2 0xF4C PUSH1 0x60 DUP7 ADD DUP3 PUSH2 0xDCA JUMP JUMPDEST POP DUP1 SWAP2 POP POP SWAP3 SWAP2 POP POP JUMP JUMPDEST PUSH1 0x0 PUSH2 0xF63 DUP4 DUP4 PUSH2 0xEED JUMP JUMPDEST SWAP1 POP SWAP3 SWAP2 POP POP JUMP JUMPDEST PUSH1 0x0 PUSH1 0x20 DUP3 ADD SWAP1 POP SWAP2 SWAP1 POP JUMP JUMPDEST PUSH1 0x0 PUSH2 0xF83 DUP3 PUSH2 0xEC1 JUMP JUMPDEST PUSH2 0xF8D DUP2 DUP6 PUSH2 0xECC JUMP JUMPDEST SWAP4 POP DUP4 PUSH1 0x20 DUP3 MUL DUP6 ADD PUSH2 0xF9F DUP6 PUSH2 0xEDD JUMP JUMPDEST DUP1 PUSH1 0x0 JUMPDEST DUP6 DUP2 LT ISZERO PUSH2 0xFDB JUMPI DUP5 DUP5 SUB DUP10 MSTORE DUP2 MLOAD PUSH2 0xFBC DUP6 DUP3 PUSH2 0xF57 JUMP JUMPDEST SWAP5 POP PUSH2 0xFC7 DUP4 PUSH2 0xF6B JUMP JUMPDEST SWAP3 POP PUSH1 0x20 DUP11 ADD SWAP10 POP POP PUSH1 0x1 DUP2 ADD SWAP1 POP PUSH2 0xFA3 JUMP JUMPDEST POP DUP3 SWAP8 POP DUP8 SWAP6 POP POP POP POP POP POP SWAP3 SWAP2 POP POP JUMP JUMPDEST PUSH1 0x0 PUSH1 0x20 DUP3 ADD SWAP1 POP DUP2 DUP2 SUB PUSH1 0x0 DUP4 ADD MSTORE PUSH2 0x1007 DUP2 DUP5 PUSH2 0xF78 JUMP JUMPDEST SWAP1 POP SWAP3 SWAP2 POP POP JUMP JUMPDEST PUSH2 0x1018 DUP2 PUSH2 0xD5B JUMP JUMPDEST DUP3 MSTORE POP POP JUMP JUMPDEST PUSH1 0x0 PUSH1 0x20 DUP3 ADD SWAP1 POP PUSH2 0x1033 PUSH1 0x0 DUP4 ADD DUP5 PUSH2 0x100F JUMP JUMPDEST SWAP3 SWAP2 POP POP JUMP JUMPDEST PUSH2 0x1042 DUP2 PUSH2 0xE85 JUMP JUMPDEST DUP2 EQ PUSH2 0x104D JUMPI PUSH1 0x0 DUP1 REVERT JUMPDEST POP JUMP JUMPDEST PUSH1 0x0 DUP2 CALLDATALOAD SWAP1 POP PUSH2 0x105F DUP2 PUSH2 0x1039 JUMP JUMPDEST SWAP3 SWAP2 POP POP JUMP JUMPDEST PUSH1 0x0 PUSH1 0x20 DUP3 DUP5 SUB SLT ISZERO PUSH2 0x107B JUMPI PUSH2 0x107A PUSH2 0xB5B JUMP JUMPDEST JUMPDEST PUSH1 0x0 PUSH2 0x1089 DUP5 DUP3 DUP6 ADD PUSH2 0x1050 JUMP JUMPDEST SWAP2 POP POP SWAP3 SWAP2 POP POP JUMP JUMPDEST PUSH32 0x4E487B7100000000000000000000000000000000000000000000000000000000 PUSH1 0x0 MSTORE PUSH1 0x22 PUSH1 0x4 MSTORE PUSH1 0x24 PUSH1 0x0 REVERT JUMPDEST PUSH1 0x0 PUSH1 0x2 DUP3 DIV SWAP1 POP PUSH1 0x1 DUP3 AND DUP1 PUSH2 0x10D9 JUMPI PUSH1 0x7F DUP3 AND SWAP2 POP JUMPDEST PUSH1 0x20 DUP3 LT DUP2 SUB PUSH2 0x10EC JUMPI PUSH2 0x10EB PUSH2 0x1092 JUMP JUMPDEST JUMPDEST POP SWAP2 SWAP1 POP JUMP JUMPDEST PUSH32 0x5469746C65206973207265717569726564000000000000000000000000000000 PUSH1 0x0 DUP3 ADD MSTORE POP JUMP JUMPDEST PUSH1 0x0 PUSH2 0x1128 PUSH1 0x11 DUP4 PUSH2 0xAAA JUMP JUMPDEST SWAP2 POP PUSH2 0x1133 DUP3 PUSH2 0x10F2 JUMP JUMPDEST PUSH1 0x20 DUP3 ADD SWAP1 POP SWAP2 SWAP1 POP JUMP JUMPDEST PUSH1 0x0 PUSH1 0x20 DUP3 ADD SWAP1 POP DUP2 DUP2 SUB PUSH1 0x0 DUP4 ADD MSTORE PUSH2 0x1157 DUP2 PUSH2 0x111B JUMP JUMPDEST SWAP1 POP SWAP2 SWAP1 POP JUMP JUMPDEST PUSH32 0x4861736820697320726571756972656400000000000000000000000000000000 PUSH1 0x0 DUP3 ADD MSTORE POP JUMP JUMPDEST PUSH1 0x0 PUSH2 0x1194 PUSH1 0x10 DUP4 PUSH2 0xAAA JUMP JUMPDEST SWAP2 POP PUSH2 0x119F DUP3 PUSH2 0x115E JUMP JUMPDEST PUSH1 0x20 DUP3 ADD SWAP1 POP SWAP2 SWAP1 POP JUMP JUMPDEST PUSH1 0x0 PUSH1 0x20 DUP3 ADD SWAP1 POP DUP2 DUP2 SUB PUSH1 0x0 DUP4 ADD MSTORE PUSH2 0x11C3 DUP2 PUSH2 0x1187 JUMP JUMPDEST SWAP1 POP SWAP2 SWAP1 POP JUMP JUMPDEST PUSH1 0x0 DUP2 SWAP1 POP DUP2 PUSH1 0x0 MSTORE PUSH1 0x20 PUSH1 0x0 KECCAK256 SWAP1 POP SWAP2 SWAP1 POP JUMP JUMPDEST PUSH1 0x0 PUSH1 0x20 PUSH1 0x1F DUP4 ADD DIV SWAP1 POP SWAP2 SWAP1 POP JUMP JUMPDEST PUSH1 0x0 DUP3 DUP3 SHL SWAP1 POP SWAP3 SWAP2 POP POP JUMP JUMPDEST PUSH1 0x0 PUSH1 0x8 DUP4 MUL PUSH2 0x122C PUSH32 0xFFFFFFFFFFFFFFFFFFFFFFFFFFFFFFFFFFFFFFFFFFFFFFFFFFFFFFFFFFFFFFFF DUP3 PUSH2 0x11EF JUMP JUMPDEST PUSH2 0x1236 DUP7 DUP4 PUSH2 0x11EF JUMP JUMPDEST SWAP6 POP DUP1 NOT DUP5 AND SWAP4 POP DUP1 DUP7 AND DUP5 OR SWAP3 POP POP POP SWAP4 SWAP3 POP POP POP JUMP JUMPDEST PUSH1 0x0 DUP2 SWAP1 POP SWAP2 SWAP1 POP JUMP JUMPDEST PUSH1 0x0 PUSH2 0x1273 PUSH2 0x126E PUSH2 0x1269 DUP5 PUSH2 0xD5B JUMP JUMPDEST PUSH2 0x124E JUMP JUMPDEST PUSH2 0xD5B JUMP JUMPDEST SWAP1 POP SWAP2 SWAP1 POP JUMP JUMPDEST PUSH1 0x0 DUP2 SWAP1 POP SWAP2 SWAP1 POP JUMP JUMPDEST PUSH2 0x128D DUP4 PUSH2 0x1258 JUMP JUMPDEST PUSH2 0x12A1 PUSH2 0x1299 DUP3 PUSH2 0x127A JUMP JUMPDEST DUP5 DUP5 SLOAD PUSH2 0x11FC JUMP JUMPDEST DUP3 SSTORE POP POP POP POP JUMP JUMPDEST PUSH1 0x0 SWAP1 JUMP JUMPDEST PUSH2 0x12B6 PUSH2 0x12A9 JUMP JUMPDEST PUSH2 0x12C1 DUP2 DUP5 DUP5 PUSH2 0x1284 JUMP JUMPDEST POP POP POP JUMP JUMPDEST JUMPDEST DUP2 DUP2 LT ISZERO PUSH2 0x12E5 JUMPI PUSH2 0x12DA PUSH1 0x0 DUP3 PUSH2 0x12AE JUMP JUMPDEST PUSH1 0x1 DUP2 ADD SWAP1 POP PUSH2 0x12C7 JUMP JUMPDEST POP POP JUMP JUMPDEST PUSH1 0x1F DUP3 GT ISZERO PUSH2 0x132A JUMPI PUSH2 0x12FB DUP2 PUSH2 0x11CA JUMP JUMPDEST PUSH2 0x1304 DUP5 PUSH2 0x11DF JUMP JUMPDEST DUP2 ADD PUSH1 0x20 DUP6 LT ISZERO PUSH2 0x1313 JUMPI DUP2 SWAP1 POP JUMPDEST PUSH2 0x1327 PUSH2 0x131F DUP6 PUSH2 0x11DF JUMP JUMPDEST DUP4 ADD DUP3 PUSH2 0x12C6 JUMP JUMPDEST POP POP JUMPDEST POP POP POP JUMP JUMPDEST PUSH1 0x0 DUP3 DUP3 SHR SWAP1 POP SWAP3 SWAP2 POP POP JUMP JUMPDEST PUSH1 0x0 PUSH2 0x134D PUSH1 0x0 NOT DUP5 PUSH1 0x8 MUL PUSH2 0x132F JUMP JUMPDEST NOT DUP1 DUP4 AND SWAP2 POP POP SWAP3 SWAP2 POP POP JUMP JUMPDEST PUSH1 0x0 PUSH2 0x1366 DUP4 DUP4 PUSH2 0x133C JUMP JUMPDEST SWAP2 POP DUP3 PUSH1 0x2 MUL DUP3 OR SWAP1 POP SWAP3 SWAP2 POP POP JUMP JUMPDEST PUSH2 0x137F DUP3 PUSH2 0xA9F JUMP JUMPDEST PUSH8 0xFFFFFFFFFFFFFFFF DUP2 GT ISZERO PUSH2 0x1398 JUMPI PUSH2 0x1397 PUSH2 0xB6F JUMP JUMPDEST JUMPDEST PUSH2 0x13A2 DUP3 SLOAD PUSH2 0x10C1 JUMP JUMPDEST PUSH2 0x13AD DUP3 DUP3 DUP6 PUSH2 0x12E9 JUMP JUMPDEST PUSH1 0x0 PUSH1 0x20 SWAP1 POP PUSH1 0x1F DUP4 GT PUSH1 0x1 DUP2 EQ PUSH2 0x13E0 JUMPI PUSH1 0x0 DUP5 ISZERO PUSH2 0x13CE JUMPI DUP3 DUP8 ADD MLOAD SWAP1 POP JUMPDEST PUSH2 0x13D8 DUP6 DUP3 PUSH2 0x135A JUMP JUMPDEST DUP7 SSTORE POP PUSH2 0x1440 JUMP JUMPDEST PUSH1 0x1F NOT DUP5 AND PUSH2 0x13EE DUP7 PUSH2 0x11CA JUMP JUMPDEST PUSH1 0x0 JUMPDEST DUP3 DUP2 LT ISZERO PUSH2 0x1416 JUMPI DUP5 DUP10 ADD MLOAD DUP3 SSTORE PUSH1 0x1 DUP3 ADD SWAP2 POP PUSH1 0x20 DUP6 ADD SWAP5 POP PUSH1 0x20 DUP2 ADD SWAP1 POP PUSH2 0x13F1 JUMP JUMPDEST DUP7 DUP4 LT ISZERO PUSH2 0x1433 JUMPI DUP5 DUP10 ADD MLOAD PUSH2 0x142F PUSH1 0x1F DUP10 AND DUP3 PUSH2 0x133C JUMP JUMPDEST DUP4 SSTORE POP JUMPDEST PUSH1 0x1 PUSH1 0x2 DUP9 MUL ADD DUP9 SSTORE POP POP POP JUMPDEST POP POP POP POP POP POP JUMP JUMPDEST PUSH1 0x0 DUP2 SWAP1 POP SWAP3 SWAP2 POP POP JUMP JUMPDEST PUSH1 0x0 PUSH2 0x145E DUP3 PUSH2 0xA9F JUMP JUMPDEST PUSH2 0x1468 DUP2 DUP6 PUSH2 0x1448 JUMP JUMPDEST SWAP4 POP PUSH2 0x1478 DUP2 DUP6 PUSH1 0x20 DUP7 ADD PUSH2 0xABB JUMP JUMPDEST DUP1 DUP5 ADD SWAP2 POP POP SWAP3 SWAP2 POP POP JUMP JUMPDEST PUSH1 0x0 PUSH2 0x1490 DUP3 DUP5 PUSH2 0x1453 JUMP JUMPDEST SWAP2 POP DUP2 SWAP1 POP SWAP3 SWAP2 POP POP JUMP JUMPDEST PUSH1 0x0 DUP2 SLOAD SWAP1 POP PUSH2 0x14AA DUP2 PUSH2 0x10C1 JUMP JUMPDEST SWAP1 POP SWAP2 SWAP1 POP JUMP JUMPDEST DUP2 DUP2 SUB PUSH2 0x14BF JUMPI POP POP PUSH2 0x1597 JUMP JUMPDEST PUSH2 0x14C8 DUP3 PUSH2 0x149B JUMP JUMPDEST PUSH8 0xFFFFFFFFFFFFFFFF DUP2 GT ISZERO PUSH2 0x14E1 JUMPI PUSH2 0x14E0 PUSH2 0xB6F JUMP JUMPDEST JUMPDEST PUSH2 0x14EB DUP3 SLOAD PUSH2 0x10C1 JUMP JUMPDEST PUSH2 0x14F6 DUP3 DUP3 DUP6 PUSH2 0x12E9 JUMP JUMPDEST PUSH1 0x0 PUSH1 0x1F DUP4 GT PUSH1 0x1 DUP2 EQ PUSH2 0x1525 JUMPI PUSH1 0x0 DUP5 ISZERO PUSH2 0x1513 JUMPI DUP3 DUP8 ADD SLOAD SWAP1 POP JUMPDEST PUSH2 0x151D DUP6 DUP3 PUSH2 0x135A JUMP JUMPDEST DUP7 SSTORE POP PUSH2 0x1590 JUMP JUMPDEST PUSH1 0x1F NOT DUP5 AND PUSH2 0x1533 DUP8 PUSH2 0x11CA JUMP JUMPDEST SWAP7 POP PUSH2 0x153E DUP7 PUSH2 0x11CA JUMP JUMPDEST PUSH1 0x0 JUMPDEST DUP3 DUP2 LT ISZERO PUSH2 0x1566 JUMPI DUP5 DUP10 ADD SLOAD DUP3 SSTORE PUSH1 0x1 DUP3 ADD SWAP2 POP PUSH1 0x1 DUP6 ADD SWAP5 POP PUSH1 0x20 DUP2 ADD SWAP1 POP PUSH2 0x1541 JUMP JUMPDEST DUP7 DUP4 LT ISZERO PUSH2 0x1583 JUMPI DUP5 DUP10 ADD SLOAD PUSH2 0x157F PUSH1 0x1F DUP10 AND DUP3 PUSH2 0x133C JUMP JUMPDEST DUP4 SSTORE POP JUMPDEST PUSH1 0x1 PUSH1 0x2 DUP9 MUL ADD DUP9 SSTORE POP POP POP JUMPDEST POP POP POP POP POP POP JUMPDEST JUMP JUMPDEST PUSH1 0x0 PUSH1 0x60 DUP3 ADD SWAP1 POP PUSH2 0x15AE PUSH1 0x0 DUP4 ADD DUP7 PUSH2 0x100F JUMP JUMPDEST DUP2 DUP2 SUB PUSH1 0x20 DUP4 ADD MSTORE PUSH2 0x15C0 DUP2 DUP6 PUSH2 0xAF6 JUMP JUMPDEST SWAP1 POP DUP2 DUP2 SUB PUSH1 0x40 DUP4 ADD MSTORE PUSH2 0x15D4 DUP2 DUP5 PUSH2 0xAF6 JUMP JUMPDEST SWAP1 POP SWAP5 SWAP4 POP POP POP POP JUMP JUMPDEST PUSH32 0x4F6E6C7920746865206F776E65722063616E2075706461746520746865206E61 PUSH1 0x0 DUP3 ADD MSTORE PUSH32 0x6D65000000000000000000000000000000000000000000000000000000000000 PUSH1 0x20 DUP3 ADD MSTORE POP JUMP JUMPDEST PUSH1 0x0 PUSH2 0x163A PUSH1 0x22 DUP4 PUSH2 0xAAA JUMP JUMPDEST SWAP2 POP PUSH2 0x1645 DUP3 PUSH2 0x15DE JUMP JUMPDEST PUSH1 0x40 DUP3 ADD SWAP1 POP SWAP2 SWAP1 POP JUMP JUMPDEST PUSH1 0x0 PUSH1 0x20 DUP3 ADD SWAP1 POP DUP2 DUP2 SUB PUSH1 0x0 DUP4 ADD MSTORE PUSH2 0x1669 DUP2 PUSH2 0x162D JUMP JUMPDEST SWAP1 POP SWAP2 SWAP1 POP JUMP JUMPDEST PUSH32 0x4E487B7100000000000000000000000000000000000000000000000000000000 PUSH1 0x0 MSTORE PUSH1 0x11 PUSH1 0x4 MSTORE PUSH1 0x24 PUSH1 0x0 REVERT JUMPDEST PUSH1 0x0 PUSH2 0x16AA DUP3 PUSH2 0xD5B JUMP JUMPDEST SWAP2 POP PUSH2 0x16B5 DUP4 PUSH2 0xD5B JUMP JUMPDEST SWAP3 POP DUP3 DUP3 ADD SWAP1 POP DUP1 DUP3 GT ISZERO PUSH2 0x16CD JUMPI PUSH2 0x16CC PUSH2 0x1670 JUMP JUMPDEST JUMPDEST SWAP3 SWAP2 POP POP JUMP JUMPDEST PUSH32 0x4E487B7100000000000000000000000000000000000000000000000000000000 PUSH1 0x0 MSTORE PUSH1 0x32 PUSH1 0x4 MSTORE PUSH1 0x24 PUSH1 0x0 REVERT JUMPDEST PUSH1 0x0 PUSH2 0x170D DUP3 PUSH2 0xD5B JUMP JUMPDEST SWAP2 POP PUSH32 0xFFFFFFFFFFFFFFFFFFFFFFFFFFFFFFFFFFFFFFFFFFFFFFFFFFFFFFFFFFFFFFFF DUP3 SUB PUSH2 0x173F JUMPI PUSH2 0x173E PUSH2 0x1670 JUMP JUMPDEST JUMPDEST PUSH1 0x1 DUP3 ADD SWAP1 POP SWAP2 SWAP1 POP JUMP JUMPDEST PUSH32 0x4F6E6C7920746865206F776E65722063616E207472616E73666572206F776E65 PUSH1 0x0 DUP3 ADD MSTORE PUSH32 0x7273686970000000000000000000000000000000000000000000000000000000 PUSH1 0x20 DUP3 ADD MSTORE POP JUMP JUMPDEST PUSH1 0x0 PUSH2 0x17A6 PUSH1 0x25 DUP4 PUSH2 0xAAA JUMP JUMPDEST SWAP2 POP PUSH2 0x17B1 DUP3 PUSH2 0x174A JUMP JUMPDEST PUSH1 0x40 DUP3 ADD SWAP1 POP SWAP2 SWAP1 POP JUMP JUMPDEST PUSH1 0x0 PUSH1 0x20 DUP3 ADD SWAP1 POP DUP2 DUP2 SUB PUSH1 0x0 DUP4 ADD MSTORE PUSH2 0x17D5 DUP2 PUSH2 0x1799 JUMP JUMPDEST SWAP1 POP SWAP2 SWAP1 POP JUMP JUMPDEST PUSH1 0x0 PUSH1 0x40 DUP3 ADD SWAP1 POP DUP2 DUP2 SUB PUSH1 0x0 DUP4 ADD MSTORE PUSH2 0x17F6 DUP2 DUP6 PUSH2 0xAF6 JUMP JUMPDEST SWAP1 POP DUP2 DUP2 SUB PUSH1 0x20 DUP4 ADD MSTORE PUSH2 0x180A DUP2 DUP5 PUSH2 0xAF6 JUMP JUMPDEST SWAP1 POP SWAP4 SWAP3 POP POP POP JUMP INVALID LOG2 PUSH5 0x6970667358 0x22 SLT KECCAK256 0xAD 0xD1 RETURNDATACOPY 0xA6 0xC2 DUP6 CHAINID SHL 0xA6 0x5D GT SWAP12 EXP EXTCODEHASH PUSH14 0xD64B91720C6E433D2698797C287F DELEGATECALL 0xEA 0xD PUSH5 0x736F6C6343 STOP ADDMOD GT STOP CALLER "},"methodIdentifiers":{"_postIds()":"e75c94dc","createPost(string,string)":"392338f5","fetchPost(string)":"44828659","fetchPosts()":"abaddd7f","name()":"06fdde03","owner()":"8da5cb5b","transferOwnership(address)":"f2fde38b","updateName(string)":"84da92a7"}}}}}