{
  "_format": "hh-sol-artifact-1",
  "contractName": "Blog",
  "sourceName": "contracts/Blog.sol",
  "abi": [
    {
      "inputs": [
        {
          "internalType": "string",
          "name": "_name",
          "type": "string"
        }
      ],
      "stateMutability": "nonpayable",
      "type": "constructor"
    },
    {
      "anonymous": false,
      "inputs": [
        {
          "indexed": false,
          "internalType": "uint256",
          "name": "id",
          "type": "uint256"
        },
        {
          "indexed": false,
          "internalType": "string",
          "name": "title",
          "type": "string"
        },
        {
          "indexed": false,
          "internalType": "string",
          "name": "hash",
          "type": "string"
        },
        {
          "indexed": false,
          "internalType": "bool",
          "name": "published",
          "type": "bool"
        }
      ],
      "name": "PostCreated",
      "type": "event"
    },
    {
      "anonymous": false,
      "inputs": [
        {
          "indexed": false,
          "internalType": "uint256",
          "name": "id",
          "type": "uint256"
        },
        {
          "indexed": false,
          "internalType": "string",
          "name": "title",
          "type": "string"
        },
        {
          "indexed": false,
          "internalType": "string",
          "name": "hash",
          "type": "string"
        },
        {
          "indexed": false,
          "internalType": "bool",
          "name": "published",
          "type": "bool"
        }
      ],
      "name": "PostUpdated",
      "type": "event"
    },
    {
      "inputs": [],
      "name": "_postIds",
      "outputs": [
        {
          "internalType": "uint256",
          "name": "_value",
          "type": "uint256"
        }
      ],
      "stateMutability": "view",
      "type": "function"
    },
    {
      "inputs": [
        {
          "internalType": "string",
          "name": "title",
          "type": "string"
        },
        {
          "internalType": "string",
          "name": "hash",
          "type": "string"
        }
      ],
      "name": "createPost",
      "outputs": [],
      "stateMutability": "nonpayable",
      "type": "function"
    },
    {
      "inputs": [
        {
          "internalType": "string",
          "name": "hash",
          "type": "string"
        }
      ],
      "name": "fetchPost",
      "outputs": [
        {
          "components": [
            {
              "internalType": "uint256",
              "name": "id",
              "type": "uint256"
            },
            {
              "internalType": "string",
              "name": "title",
              "type": "string"
            },
            {
              "internalType": "string",
              "name": "content",
              "type": "string"
            },
            {
              "internalType": "bool",
              "name": "published",
              "type": "bool"
            }
          ],
          "internalType": "struct Blog.Post",
          "name": "",
          "type": "tuple"
        }
      ],
      "stateMutability": "view",
      "type": "function"
    },
    {
      "inputs": [],
      "name": "fetchPosts",
      "outputs": [
        {
          "components": [
            {
              "internalType": "uint256",
              "name": "id",
              "type": "uint256"
            },
            {
              "internalType": "string",
              "name": "title",
              "type": "string"
            },
            {
              "internalType": "string",
              "name": "content",
              "type": "string"
            },
            {
              "internalType": "bool",
              "name": "published",
              "type": "bool"
            }
          ],
          "internalType": "struct Blog.Post[]",
          "name": "",
          "type": "tuple[]"
        }
      ],
      "stateMutability": "view",
      "type": "function"
    },
    {
      "inputs": [],
      "name": "name",
      "outputs": [
        {
          "internalType": "string",
          "name": "",
          "type": "string"
        }
      ],
      "stateMutability": "view",
      "type": "function"
    },
    {
      "inputs": [],
      "name": "owner",
      "outputs": [
        {
          "internalType": "address",
          "name": "",
          "type": "address"
        }
      ],
      "stateMutability": "view",
      "type": "function"
    },
    {
      "inputs": [
        {
          "internalType": "address",
          "name": "newOwner",
          "type": "address"
        }
      ],
      "name": "transferOwnership",
      "outputs": [],
      "stateMutability": "nonpayable",
      "type": "function"
    },
    {
      "inputs": [
        {
          "internalType": "string",
          "name": "_name",
          "type": "string"
        }
      ],
      "name": "updateName",
      "outputs": [],
      "stateMutability": "nonpayable",
      "type": "function"
    },
    {
      "inputs": [
        {
          "internalType": "uint256",
          "name": "postId",
          "type": "uint256"
        },
        {
          "internalType": "string",
          "name": "title",
          "type": "string"
        },
        {
          "internalType": "string",
          "name": "hash",
          "type": "string"
        },
        {
          "internalType": "bool",
          "name": "published",
          "type": "bool"
        }
      ],
      "name": "updatePost",
      "outputs": [],
      "stateMutability": "nonpayable",
      "type": "function"
    }
  ],
  "bytecode": "0x60806040523480156200001157600080fd5b50604051620022db380380620022db83398181016040528101906200003791906200033f565b620000836040518060400160405280601981526020017f4465706c6f79696e6720626c6f672077697468206e616d653a0000000000000081525082620000dd60201b62000bab1760201c565b8060009081620000949190620005db565b5033600160006101000a81548173ffffffffffffffffffffffffffffffffffffffff021916908373ffffffffffffffffffffffffffffffffffffffff160217905550506200074f565b6200017f8282604051602401620000f692919062000714565b6040516020818303038152906040527f4b5c4277000000000000000000000000000000000000000000000000000000007bffffffffffffffffffffffffffffffffffffffffffffffffffffffff19166020820180517bffffffffffffffffffffffffffffffffffffffffffffffffffffffff83818316178352505050506200018360201b60201c565b5050565b60008151905060006a636f6e736f6c652e6c6f679050602083016000808483855afa5050505050565b6000604051905090565b600080fd5b600080fd5b600080fd5b600080fd5b6000601f19601f8301169050919050565b7f4e487b7100000000000000000000000000000000000000000000000000000000600052604160045260246000fd5b6200021582620001ca565b810181811067ffffffffffffffff82111715620002375762000236620001db565b5b80604052505050565b60006200024c620001ac565b90506200025a82826200020a565b919050565b600067ffffffffffffffff8211156200027d576200027c620001db565b5b6200028882620001ca565b9050602081019050919050565b60005b83811015620002b557808201518184015260208101905062000298565b60008484015250505050565b6000620002d8620002d2846200025f565b62000240565b905082815260208101848484011115620002f757620002f6620001c5565b5b6200030484828562000295565b509392505050565b600082601f830112620003245762000323620001c0565b5b815162000336848260208601620002c1565b91505092915050565b600060208284031215620003585762000357620001b6565b5b600082015167ffffffffffffffff811115620003795762000378620001bb565b5b62000387848285016200030c565b91505092915050565b600081519050919050565b7f4e487b7100000000000000000000000000000000000000000000000000000000600052602260045260246000fd5b60006002820490506001821680620003e357607f821691505b602082108103620003f957620003f86200039b565b5b50919050565b60008190508160005260206000209050919050565b60006020601f8301049050919050565b600082821b905092915050565b600060088302620004637fffffffffffffffffffffffffffffffffffffffffffffffffffffffffffffffff8262000424565b6200046f868362000424565b95508019841693508086168417925050509392505050565b6000819050919050565b6000819050919050565b6000620004bc620004b6620004b08462000487565b62000491565b62000487565b9050919050565b6000819050919050565b620004d8836200049b565b620004f0620004e782620004c3565b84845462000431565b825550505050565b600090565b62000507620004f8565b62000514818484620004cd565b505050565b5b818110156200053c5762000530600082620004fd565b6001810190506200051a565b5050565b601f8211156200058b576200055581620003ff565b620005608462000414565b8101602085101562000570578190505b620005886200057f8562000414565b83018262000519565b50505b505050565b600082821c905092915050565b6000620005b06000198460080262000590565b1980831691505092915050565b6000620005cb83836200059d565b9150826002028217905092915050565b620005e68262000390565b67ffffffffffffffff811115620006025762000601620001db565b5b6200060e8254620003ca565b6200061b82828562000540565b600060209050601f8311600181146200065357600084156200063e578287015190505b6200064a8582620005bd565b865550620006ba565b601f1984166200066386620003ff565b60005b828110156200068d5784890151825560018201915060208501945060208101905062000666565b86831015620006ad5784890151620006a9601f8916826200059d565b8355505b6001600288020188555050505b505050505050565b600082825260208201905092915050565b6000620006e08262000390565b620006ec8185620006c2565b9350620006fe81856020860162000295565b6200070981620001ca565b840191505092915050565b60006040820190508181036000830152620007308185620006d3565b90508181036020830152620007468184620006d3565b90509392505050565b611b7c806200075f6000396000f3fe608060405234801561001057600080fd5b50600436106100935760003560e01c80638da5cb5b116100665780638da5cb5b1461011e578063abaddd7f1461013c578063cd349fe91461015a578063e75c94dc14610176578063f2fde38b1461019457610093565b806306fdde0314610098578063392338f5146100b657806344828659146100d257806384da92a714610102575b600080fd5b6100a06101b0565b6040516100ad9190610d4e565b60405180910390f35b6100d060048036038101906100cb9190610eb9565b61023e565b005b6100ec60048036038101906100e79190610f31565b610460565b6040516100f99190611062565b60405180910390f35b61011c60048036038101906101179190610f31565b6105e1565b005b610126610684565b60405161013391906110c5565b60405180910390f35b6101446106aa565b604051610151919061120c565b60405180910390f35b610174600480360381019061016f9190611286565b6108d6565b005b61017e610acb565b60405161018b9190611334565b60405180910390f35b6101ae60048036038101906101a9919061137b565b610ad7565b005b600080546101bd906113d7565b80601f01602080910402602001604051908101604052809291908181526020018280546101e9906113d7565b80156102365780601f1061020b57610100808354040283529160200191610236565b820191906000526020600020905b81548152906001019060200180831161021957829003601f168201915b505050505081565b600160009054906101000a900473ffffffffffffffffffffffffffffffffffffffff1673ffffffffffffffffffffffffffffffffffffffff163373ffffffffffffffffffffffffffffffffffffffff161461029857600080fd5b60008251116102dc576040517f08c379a00000000000000000000000000000000000000000000000000000000081526004016102d390611454565b60405180910390fd5b6000815111610320576040517f08c379a0000000000000000000000000000000000000000000000000000000008152600401610317906114c0565b60405180910390fd5b61032a6002610c47565b60006103366002610c5d565b9050600060036000838152602001908152602001600020905081816000018190555083816001019081610369919061168c565b5060018160030160006101000a81548160ff02191690831515021790555082816002019081610398919061168c565b50806004846040516103aa919061179a565b908152602001604051809103902060008201548160000155600182018160010190816103d691906117c7565b50600282018160020190816103eb91906117c7565b506003820160009054906101000a900460ff168160030160006101000a81548160ff0219169083151502179055509050507f4487822696e31f159e373d83db1e7d8ce1dd926aa0ddc1941583ea05e8d21cde828585600160405161045294939291906118be565b60405180910390a150505050565b610468610c94565b600482604051610478919061179a565b9081526020016040518091039020604051806080016040529081600082015481526020016001820180546104ab906113d7565b80601f01602080910402602001604051908101604052809291908181526020018280546104d7906113d7565b80156105245780601f106104f957610100808354040283529160200191610524565b820191906000526020600020905b81548152906001019060200180831161050757829003601f168201915b5050505050815260200160028201805461053d906113d7565b80601f0160208091040260200160405190810160405280929190818152602001828054610569906113d7565b80156105b65780601f1061058b576101008083540402835291602001916105b6565b820191906000526020600020905b81548152906001019060200180831161059957829003601f168201915b505050505081526020016003820160009054906101000a900460ff1615151515815250509050919050565b600160009054906101000a900473ffffffffffffffffffffffffffffffffffffffff1673ffffffffffffffffffffffffffffffffffffffff163373ffffffffffffffffffffffffffffffffffffffff1614610671576040517f08c379a000000000000000000000000000000000000000000000000000000000815260040161066890611983565b60405180910390fd5b8060009081610680919061168c565b5050565b600160009054906101000a900473ffffffffffffffffffffffffffffffffffffffff1681565b606060006106b86002610c5d565b905060008167ffffffffffffffff8111156106d6576106d5610d8e565b5b60405190808252806020026020018201604052801561070f57816020015b6106fc610c94565b8152602001906001900390816106f45790505b50905060005b828110156108cd57600060018261072c91906119d2565b90506000600360008381526020019081526020016000209050806040518060800160405290816000820154815260200160018201805461076b906113d7565b80601f0160208091040260200160405190810160405280929190818152602001828054610797906113d7565b80156107e45780601f106107b9576101008083540402835291602001916107e4565b820191906000526020600020905b8154815290600101906020018083116107c757829003601f168201915b505050505081526020016002820180546107fd906113d7565b80601f0160208091040260200160405190810160405280929190818152602001828054610829906113d7565b80156108765780601f1061084b57610100808354040283529160200191610876565b820191906000526020600020905b81548152906001019060200180831161085957829003601f168201915b505050505081526020016003820160009054906101000a900460ff1615151515815250508484815181106108ad576108ac611a06565b5b6020026020010181905250505080806108c590611a35565b915050610715565b50809250505090565b600160009054906101000a900473ffffffffffffffffffffffffffffffffffffffff1673ffffffffffffffffffffffffffffffffffffffff163373ffffffffffffffffffffffffffffffffffffffff161461093057600080fd5b600060036000868152602001908152602001600020905083816001019081610958919061168c565b5060018160030160006101000a81548160ff02191690831515021790555082816002019081610987919061168c565b50806003600087815260200190815260200160002060008201548160000155600182018160010190816109ba91906117c7565b50600282018160020190816109cf91906117c7565b506003820160009054906101000a900460ff168160030160006101000a81548160ff02191690831515021790555090505080600484604051610a11919061179a565b90815260200160405180910390206000820154816000015560018201816001019081610a3d91906117c7565b5060028201816002019081610a5291906117c7565b506003820160009054906101000a900460ff168160030160006101000a81548160ff0219169083151502179055509050507f9f8eb93fc073102bbd3072664634ab200707a4f11d94aace9cc8d0e4d019eff58160000154858585604051610abc94939291906118be565b60405180910390a15050505050565b60028060000154905081565b600160009054906101000a900473ffffffffffffffffffffffffffffffffffffffff1673ffffffffffffffffffffffffffffffffffffffff163373ffffffffffffffffffffffffffffffffffffffff1614610b67576040517f08c379a0000000000000000000000000000000000000000000000000000000008152600401610b5e90611aef565b60405180910390fd5b80600160006101000a81548173ffffffffffffffffffffffffffffffffffffffff021916908373ffffffffffffffffffffffffffffffffffffffff16021790555050565b610c438282604051602401610bc1929190611b0f565b6040516020818303038152906040527f4b5c4277000000000000000000000000000000000000000000000000000000007bffffffffffffffffffffffffffffffffffffffffffffffffffffffff19166020820180517bffffffffffffffffffffffffffffffffffffffffffffffffffffffff8381831617835250505050610c6b565b5050565b6001816000016000828254019250508190555050565b600081600001549050919050565b60008151905060006a636f6e736f6c652e6c6f679050602083016000808483855afa5050505050565b60405180608001604052806000815260200160608152602001606081526020016000151581525090565b600081519050919050565b600082825260208201905092915050565b60005b83811015610cf8578082015181840152602081019050610cdd565b60008484015250505050565b6000601f19601f8301169050919050565b6000610d2082610cbe565b610d2a8185610cc9565b9350610d3a818560208601610cda565b610d4381610d04565b840191505092915050565b60006020820190508181036000830152610d688184610d15565b905092915050565b6000604051905090565b600080fd5b600080fd5b600080fd5b600080fd5b7f4e487b7100000000000000000000000000000000000000000000000000000000600052604160045260246000fd5b610dc682610d04565b810181811067ffffffffffffffff82111715610de557610de4610d8e565b5b80604052505050565b6000610df8610d70565b9050610e048282610dbd565b919050565b600067ffffffffffffffff821115610e2457610e23610d8e565b5b610e2d82610d04565b9050602081019050919050565b82818337600083830152505050565b6000610e5c610e5784610e09565b610dee565b905082815260208101848484011115610e7857610e77610d89565b5b610e83848285610e3a565b509392505050565b600082601f830112610ea057610e9f610d84565b5b8135610eb0848260208601610e49565b91505092915050565b60008060408385031215610ed057610ecf610d7a565b5b600083013567ffffffffffffffff811115610eee57610eed610d7f565b5b610efa85828601610e8b565b925050602083013567ffffffffffffffff811115610f1b57610f1a610d7f565b5b610f2785828601610e8b565b9150509250929050565b600060208284031215610f4757610f46610d7a565b5b600082013567ffffffffffffffff811115610f6557610f64610d7f565b5b610f7184828501610e8b565b91505092915050565b6000819050919050565b610f8d81610f7a565b82525050565b600082825260208201905092915050565b6000610faf82610cbe565b610fb98185610f93565b9350610fc9818560208601610cda565b610fd281610d04565b840191505092915050565b60008115159050919050565b610ff281610fdd565b82525050565b60006080830160008301516110106000860182610f84565b50602083015184820360208601526110288282610fa4565b915050604083015184820360408601526110428282610fa4565b91505060608301516110576060860182610fe9565b508091505092915050565b6000602082019050818103600083015261107c8184610ff8565b905092915050565b600073ffffffffffffffffffffffffffffffffffffffff82169050919050565b60006110af82611084565b9050919050565b6110bf816110a4565b82525050565b60006020820190506110da60008301846110b6565b92915050565b600081519050919050565b600082825260208201905092915050565b6000819050602082019050919050565b60006080830160008301516111246000860182610f84565b506020830151848203602086015261113c8282610fa4565b915050604083015184820360408601526111568282610fa4565b915050606083015161116b6060860182610fe9565b508091505092915050565b6000611182838361110c565b905092915050565b6000602082019050919050565b60006111a2826110e0565b6111ac81856110eb565b9350836020820285016111be856110fc565b8060005b858110156111fa57848403895281516111db8582611176565b94506111e68361118a565b925060208a019950506001810190506111c2565b50829750879550505050505092915050565b600060208201905081810360008301526112268184611197565b905092915050565b61123781610f7a565b811461124257600080fd5b50565b6000813590506112548161122e565b92915050565b61126381610fdd565b811461126e57600080fd5b50565b6000813590506112808161125a565b92915050565b600080600080608085870312156112a05761129f610d7a565b5b60006112ae87828801611245565b945050602085013567ffffffffffffffff8111156112cf576112ce610d7f565b5b6112db87828801610e8b565b935050604085013567ffffffffffffffff8111156112fc576112fb610d7f565b5b61130887828801610e8b565b925050606061131987828801611271565b91505092959194509250565b61132e81610f7a565b82525050565b60006020820190506113496000830184611325565b92915050565b611358816110a4565b811461136357600080fd5b50565b6000813590506113758161134f565b92915050565b60006020828403121561139157611390610d7a565b5b600061139f84828501611366565b91505092915050565b7f4e487b7100000000000000000000000000000000000000000000000000000000600052602260045260246000fd5b600060028204905060018216806113ef57607f821691505b602082108103611402576114016113a8565b5b50919050565b7f5469746c65206973207265717569726564000000000000000000000000000000600082015250565b600061143e601183610cc9565b915061144982611408565b602082019050919050565b6000602082019050818103600083015261146d81611431565b9050919050565b7f4861736820697320726571756972656400000000000000000000000000000000600082015250565b60006114aa601083610cc9565b91506114b582611474565b602082019050919050565b600060208201905081810360008301526114d98161149d565b9050919050565b60008190508160005260206000209050919050565b60006020601f8301049050919050565b600082821b905092915050565b6000600883026115427fffffffffffffffffffffffffffffffffffffffffffffffffffffffffffffffff82611505565b61154c8683611505565b95508019841693508086168417925050509392505050565b6000819050919050565b600061158961158461157f84610f7a565b611564565b610f7a565b9050919050565b6000819050919050565b6115a38361156e565b6115b76115af82611590565b848454611512565b825550505050565b600090565b6115cc6115bf565b6115d781848461159a565b505050565b5b818110156115fb576115f06000826115c4565b6001810190506115dd565b5050565b601f82111561164057611611816114e0565b61161a846114f5565b81016020851015611629578190505b61163d611635856114f5565b8301826115dc565b50505b505050565b600082821c905092915050565b600061166360001984600802611645565b1980831691505092915050565b600061167c8383611652565b9150826002028217905092915050565b61169582610cbe565b67ffffffffffffffff8111156116ae576116ad610d8e565b5b6116b882546113d7565b6116c38282856115ff565b600060209050601f8311600181146116f657600084156116e4578287015190505b6116ee8582611670565b865550611756565b601f198416611704866114e0565b60005b8281101561172c57848901518255600182019150602085019450602081019050611707565b868310156117495784890151611745601f891682611652565b8355505b6001600288020188555050505b505050505050565b600081905092915050565b600061177482610cbe565b61177e818561175e565b935061178e818560208601610cda565b80840191505092915050565b60006117a68284611769565b915081905092915050565b6000815490506117c0816113d7565b9050919050565b8181036117d55750506118ad565b6117de826117b1565b67ffffffffffffffff8111156117f7576117f6610d8e565b5b61180182546113d7565b61180c8282856115ff565b6000601f83116001811461183b5760008415611829578287015490505b6118338582611670565b8655506118a6565b601f198416611849876114e0565b9650611854866114e0565b60005b8281101561187c57848901548255600182019150600185019450602081019050611857565b868310156118995784890154611895601f891682611652565b8355505b6001600288020188555050505b5050505050505b565b6118b881610fdd565b82525050565b60006080820190506118d36000830187611325565b81810360208301526118e58186610d15565b905081810360408301526118f98185610d15565b905061190860608301846118af565b95945050505050565b7f4f6e6c7920746865206f776e65722063616e2075706461746520746865206e6160008201527f6d65000000000000000000000000000000000000000000000000000000000000602082015250565b600061196d602283610cc9565b915061197882611911565b604082019050919050565b6000602082019050818103600083015261199c81611960565b9050919050565b7f4e487b7100000000000000000000000000000000000000000000000000000000600052601160045260246000fd5b60006119dd82610f7a565b91506119e883610f7a565b9250828201905080821115611a00576119ff6119a3565b5b92915050565b7f4e487b7100000000000000000000000000000000000000000000000000000000600052603260045260246000fd5b6000611a4082610f7a565b91507fffffffffffffffffffffffffffffffffffffffffffffffffffffffffffffffff8203611a7257611a716119a3565b5b600182019050919050565b7f4f6e6c7920746865206f776e65722063616e207472616e73666572206f776e6560008201527f7273686970000000000000000000000000000000000000000000000000000000602082015250565b6000611ad9602583610cc9565b9150611ae482611a7d565b604082019050919050565b60006020820190508181036000830152611b0881611acc565b9050919050565b60006040820190508181036000830152611b298185610d15565b90508181036020830152611b3d8184610d15565b9050939250505056fea26469706673582212202eb35f838d989d4c98b2470f3ffb53b47749d3c7c9f6769f63606974be25ed7764736f6c63430008110033",
  "linkReferences": {},
  "deployedLinkReferences": {}
}